{"abi":[{"type":"constructor","inputs":[],"stateMutability":"nonpayable"},{"type":"function","name":"bet","inputs":[{"name":"marketId","type":"uint256","internalType":"uint256"},{"name":"position","type":"bool","internalType":"bool"}],"outputs":[],"stateMutability":"payable"},{"type":"function","name":"bets","inputs":[{"name":"","type":"uint256","internalType":"uint256"},{"name":"","type":"address","internalType":"address"}],"outputs":[{"name":"yesShares","type":"uint256","internalType":"uint256"},{"name":"noShares","type":"uint256","internalType":"uint256"},{"name":"claimed","type":"bool","internalType":"bool"}],"stateMutability":"view"},{"type":"function","name":"claim","inputs":[{"name":"marketId","type":"uint256","internalType":"uint256"}],"outputs":[],"stateMutability":"nonpayable"},{"type":"function","name":"createMarket","inputs":[{"name":"description","type":"string","internalType":"string"},{"name":"topicId","type":"string","internalType":"string"},{"name":"keyword","type":"string","internalType":"string"},{"name":"oracleType","type":"string","internalType":"string"},{"name":"oracleRepo","type":"string","internalType":"string"},{"name":"oracleCommitSHA","type":"string","internalType":"string"},{"name":"deadline","type":"uint256","internalType":"uint256"}],"outputs":[{"name":"","type":"uint256","internalType":"uint256"}],"stateMutability":"nonpayable"},{"type":"function","name":"getBet","inputs":[{"name":"marketId","type":"uint256","internalType":"uint256"},{"name":"bettor","type":"address","internalType":"address"}],"outputs":[{"name":"yesShares","type":"uint256","internalType":"uint256"},{"name":"noShares","type":"uint256","internalType":"uint256"},{"name":"claimed","type":"bool","internalType":"bool"}],"stateMutability":"view"},{"type":"function","name":"getMarket","inputs":[{"name":"marketId","type":"uint256","internalType":"uint256"}],"outputs":[{"name":"description","type":"string","internalType":"string"},{"name":"conditionHash","type":"bytes32","internalType":"bytes32"},{"name":"oracleRepo","type":"string","internalType":"string"},{"name":"oracleCommitSHA","type":"string","internalType":"string"},{"name":"deadline","type":"uint256","internalType":"uint256"},{"name":"settled","type":"bool","internalType":"bool"},{"name":"result","type":"bool","internalType":"bool"},{"name":"yesPool","type":"uint256","internalType":"uint256"},{"name":"noPool","type":"uint256","internalType":"uint256"}],"stateMutability":"view"},{"type":"function","name":"getOdds","inputs":[{"name":"marketId","type":"uint256","internalType":"uint256"}],"outputs":[{"name":"yesOdds","type":"uint256","internalType":"uint256"},{"name":"noOdds","type":"uint256","internalType":"uint256"}],"stateMutability":"view"},{"type":"function","name":"getPotentialPayout","inputs":[{"name":"marketId","type":"uint256","internalType":"uint256"},{"name":"bettor","type":"address","internalType":"address"}],"outputs":[{"name":"ifYesWins","type":"uint256","internalType":"uint256"},{"name":"ifNoWins","type":"uint256","internalType":"uint256"}],"stateMutability":"view"},{"type":"function","name":"marketCount","inputs":[],"outputs":[{"name":"","type":"uint256","internalType":"uint256"}],"stateMutability":"view"},{"type":"function","name":"markets","inputs":[{"name":"","type":"uint256","internalType":"uint256"}],"outputs":[{"name":"description","type":"string","internalType":"string"},{"name":"conditionHash","type":"bytes32","internalType":"bytes32"},{"name":"oracleRepo","type":"string","internalType":"string"},{"name":"oracleCommitSHA","type":"string","internalType":"string"},{"name":"deadline","type":"uint256","internalType":"uint256"},{"name":"settled","type":"bool","internalType":"bool"},{"name":"result","type":"bool","internalType":"bool"},{"name":"yesPool","type":"uint256","internalType":"uint256"},{"name":"noPool","type":"uint256","internalType":"uint256"},{"name":"totalYesShares","type":"uint256","internalType":"uint256"},{"name":"totalNoShares","type":"uint256","internalType":"uint256"}],"stateMutability":"view"},{"type":"function","name":"owner","inputs":[],"outputs":[{"name":"","type":"address","internalType":"address"}],"stateMutability":"view"},{"type":"function","name":"setTrustedSettler","inputs":[{"name":"newSettler","type":"address","internalType":"address"}],"outputs":[],"stateMutability":"nonpayable"},{"type":"function","name":"settle","inputs":[{"name":"marketId","type":"uint256","internalType":"uint256"},{"name":"topicId","type":"string","internalType":"string"},{"name":"keyword","type":"string","internalType":"string"},{"name":"oracleType","type":"string","internalType":"string"},{"name":"settleable","type":"bool","internalType":"bool"},{"name":"result","type":"bool","internalType":"bool"},{"name":"attestation","type":"bytes","internalType":"bytes"}],"outputs":[],"stateMutability":"nonpayable"},{"type":"function","name":"trustedSettler","inputs":[],"outputs":[{"name":"","type":"address","internalType":"address"}],"stateMutability":"view"},{"type":"event","name":"BetPlaced","inputs":[{"name":"marketId","type":"uint256","indexed":true,"internalType":"uint256"},{"name":"bettor","type":"address","indexed":true,"internalType":"address"},{"name":"position","type":"bool","indexed":false,"internalType":"bool"},{"name":"amount","type":"uint256","indexed":false,"internalType":"uint256"},{"name":"shares","type":"uint256","indexed":false,"internalType":"uint256"}],"anonymous":false},{"type":"event","name":"MarketCreated","inputs":[{"name":"marketId","type":"uint256","indexed":true,"internalType":"uint256"},{"name":"description","type":"string","indexed":false,"internalType":"string"},{"name":"conditionHash","type":"bytes32","indexed":false,"internalType":"bytes32"},{"name":"deadline","type":"uint256","indexed":false,"internalType":"uint256"}],"anonymous":false},{"type":"event","name":"MarketSettled","inputs":[{"name":"marketId","type":"uint256","indexed":true,"internalType":"uint256"},{"name":"result","type":"bool","indexed":false,"internalType":"bool"},{"name":"topicId","type":"string","indexed":false,"internalType":"string"},{"name":"keyword","type":"string","indexed":false,"internalType":"string"}],"anonymous":false},{"type":"event","name":"TrustedSettlerUpdated","inputs":[{"name":"newSettler","type":"address","indexed":true,"internalType":"address"}],"anonymous":false},{"type":"event","name":"WinningsClaimed","inputs":[{"name":"marketId","type":"uint256","indexed":true,"internalType":"uint256"},{"name":"winner","type":"address","indexed":true,"internalType":"address"},{"name":"amount","type":"uint256","indexed":false,"internalType":"uint256"}],"anonymous":false},{"type":"error","name":"AlreadyClaimed","inputs":[]},{"type":"error","name":"BettingClosed","inputs":[]},{"type":"error","name":"BettingStillOpen","inputs":[]},{"type":"error","name":"InvalidDeadline","inputs":[]},{"type":"error","name":"MarketAlreadySettled","inputs":[]},{"type":"error","name":"NoWinners","inputs":[]},{"type":"error","name":"NoWinningBet","inputs":[]},{"type":"error","name":"NotAuthorized","inputs":[]},{"type":"error","name":"NotSettleable","inputs":[]},{"type":"error","name":"ParameterMismatch","inputs":[]},{"type":"error","name":"TransferFailed","inputs":[]},{"type":"error","name":"ZeroBet","inputs":[]}],"bytecode":{"object":"0x608060405234801561000f575f80fd5b503360045f6101000a81548173ffffffffffffffffffffffffffffffffffffffff021916908373ffffffffffffffffffffffffffffffffffffffff1602179055503360035f6101000a81548173ffffffffffffffffffffffffffffffffffffffff021916908373ffffffffffffffffffffffffffffffffffffffff1602179055506122af8061009d5f395ff3fe6080604052600436106100dc575f3560e01c80639a6d3aaa1161007e578063e0950ddf11610058578063e0950ddf146102c4578063eb44fdd314610302578063ec97908214610346578063f644b3bb14610370576100dc565b80639a6d3aaa14610226578063b1283e7714610242578063bd9366fd14610288576100dc565b8063768ad06e116100ba578063768ad06e1461016f5780638da5cb5b146101975780639754b31c146101c157806397d65f0a146101fe576100dc565b80630904b959146100e0578063126c41661461010a578063379607f514610147575b5f80fd5b3480156100eb575f80fd5b506100f46103ae565b60405161010191906114ef565b60405180910390f35b348015610115575f80fd5b50610130600480360381019061012b919061154c565b6103d3565b60405161013e929190611586565b60405180910390f35b348015610152575f80fd5b5061016d6004803603810190610168919061154c565b61045b565b005b34801561017a575f80fd5b50610195600480360381019061019091906115d7565b610754565b005b3480156101a2575f80fd5b506101ab610860565b6040516101b891906114ef565b60405180910390f35b3480156101cc575f80fd5b506101e760048036038101906101e29190611602565b610885565b6040516101f5929190611586565b60405180910390f35b348015610209575f80fd5b50610224600480360381019061021f919061184f565b610982565b005b610240600480360381019061023b919061195c565b610bc2565b005b34801561024d575f80fd5b506102686004803603810190610263919061154c565b610de7565b60405161027f9b9a99989796959493929190611a3b565b60405180910390f35b348015610293575f80fd5b506102ae60048036038101906102a99190611af9565b610fe7565b6040516102bb9190611c3e565b60405180910390f35b3480156102cf575f80fd5b506102ea60048036038101906102e59190611602565b6111d5565b6040516102f993929190611c57565b60405180910390f35b34801561030d575f80fd5b506103286004803603810190610323919061154c565b61124f565b60405161033d99989796959493929190611c8c565b60405180910390f35b348015610351575f80fd5b5061035a61146d565b6040516103679190611c3e565b60405180910390f35b34801561037b575f80fd5b5061039660048036038101906103919190611602565b611473565b6040516103a593929190611c57565b60405180910390f35b60035f9054906101000a900473ffffffffffffffffffffffffffffffffffffffff1681565b5f805f805f8581526020019081526020015f2090505f816007015482600601546103fd9190611d59565b90505f81036104155761138880935093505050610456565b8061271083600601546104289190611d8c565b6104329190611dfa565b93508061271083600701546104479190611d8c565b6104519190611dfa565b925050505b915091565b5f805f8381526020019081526020015f209050806005015f9054906101000a900460ff166104b5576040517f6622393700000000000000000000000000000000000000000000000000000000815260040160405180910390fd5b5f60015f8481526020019081526020015f205f3373ffffffffffffffffffffffffffffffffffffffff1673ffffffffffffffffffffffffffffffffffffffff1681526020019081526020015f209050806002015f9054906101000a900460ff161561054c576040517f646cf55800000000000000000000000000000000000000000000000000000000815260040160405180910390fd5b5f8260050160019054906101000a900460ff1661056d578160010154610572565b815f01545b90505f81036105ad576040517fe9a07bf900000000000000000000000000000000000000000000000000000000815260040160405180910390fd5b6001826002015f6101000a81548160ff0219169083151502179055505f836007015484600601546105de9190611d59565b90505f8460050160019054906101000a900460ff16610601578460090154610607565b84600801545b90505f8103610642576040517f3728feb300000000000000000000000000000000000000000000000000000000815260040160405180910390fd5b5f8183856106509190611d8c565b61065a9190611dfa565b90503373ffffffffffffffffffffffffffffffffffffffff16877f5380cf6fe903b40c6d5a9e0dfbca2f3a423f0a21520b4d5947ed5169bdba946d836040516106a39190611c3e565b60405180910390a35f3373ffffffffffffffffffffffffffffffffffffffff16826040516106d090611e57565b5f6040518083038185875af1925050503d805f811461070a576040519150601f19603f3d011682016040523d82523d5f602084013e61070f565b606091505b505090508061074a576040517f90b8ec1800000000000000000000000000000000000000000000000000000000815260040160405180910390fd5b5050505050505050565b60045f9054906101000a900473ffffffffffffffffffffffffffffffffffffffff1673ffffffffffffffffffffffffffffffffffffffff163373ffffffffffffffffffffffffffffffffffffffff16146107da576040517fea8e4eb500000000000000000000000000000000000000000000000000000000815260040160405180910390fd5b8060035f6101000a81548173ffffffffffffffffffffffffffffffffffffffff021916908373ffffffffffffffffffffffffffffffffffffffff1602179055508073ffffffffffffffffffffffffffffffffffffffff167f0fbf7f8c2412035061839ba858b307aed14e3ba768893cfd27be15fac701091e60405160405180910390a250565b60045f9054906101000a900473ffffffffffffffffffffffffffffffffffffffff1681565b5f805f805f8681526020019081526020015f2090505f60015f8781526020019081526020015f205f8673ffffffffffffffffffffffffffffffffffffffff1673ffffffffffffffffffffffffffffffffffffffff1681526020019081526020015f2090505f826007015483600601546108fe9190611d59565b90505f836008015411801561091557505f825f0154115b1561093b57826008015481835f015461092e9190611d8c565b6109389190611dfa565b94505b5f836009015411801561095157505f8260010154115b1561097857826009015481836001015461096b9190611d8c565b6109759190611dfa565b93505b5050509250929050565b60035f9054906101000a900473ffffffffffffffffffffffffffffffffffffffff1673ffffffffffffffffffffffffffffffffffffffff163373ffffffffffffffffffffffffffffffffffffffff1614610a08576040517fea8e4eb500000000000000000000000000000000000000000000000000000000815260040160405180910390fd5b5f805f8981526020019081526020015f2090508060040154421015610a59576040517fc0bb38b200000000000000000000000000000000000000000000000000000000815260040160405180910390fd5b806005015f9054906101000a900460ff1615610aa1576040517f6622393700000000000000000000000000000000000000000000000000000000815260040160405180910390fd5b5f878787604051602001610ab793929190611e6b565b60405160208183030381529060405280519060200120905081600101548114610b0c576040517f9f464d8900000000000000000000000000000000000000000000000000000000815260040160405180910390fd5b84610b43576040517fb2f7122300000000000000000000000000000000000000000000000000000000815260040160405180910390fd5b6001826005015f6101000a81548160ff021916908315150217905550838260050160016101000a81548160ff021916908315150217905550887f85d256042e8e468d3fe76de2e73072f05d6d90644e957e7651438f20f0d230a2858a8a604051610baf93929190611eb5565b60405180910390a2505050505050505050565b5f805f8481526020019081526020015f20905080600401544210610c12576040517f61c54c4a00000000000000000000000000000000000000000000000000000000815260040160405180910390fd5b806005015f9054906101000a900460ff1615610c5a576040517f6622393700000000000000000000000000000000000000000000000000000000815260040160405180910390fd5b5f3403610c93576040517f6400ccd000000000000000000000000000000000000000000000000000000000815260040160405180910390fd5b5f60015f8581526020019081526020015f205f3373ffffffffffffffffffffffffffffffffffffffff1673ffffffffffffffffffffffffffffffffffffffff1681526020019081526020015f2090505f3490508315610d3e5734836006015f828254610cff9190611d59565b9250508190555080836008015f828254610d199190611d59565b9250508190555080825f015f828254610d329190611d59565b92505081905550610d8d565b34836007015f828254610d519190611d59565b9250508190555080836009015f828254610d6b9190611d59565b9250508190555080826001015f828254610d859190611d59565b925050819055505b3373ffffffffffffffffffffffffffffffffffffffff16857f52772507cb516fc74ec2a0c1cf45c731d4e9eb90979b956f47caf17c42086880863485604051610dd893929190611ef8565b60405180910390a35050505050565b5f602052805f5260405f205f91509050805f018054610e0590611f5a565b80601f0160208091040260200160405190810160405280929190818152602001828054610e3190611f5a565b8015610e7c5780601f10610e5357610100808354040283529160200191610e7c565b820191905f5260205f20905b815481529060010190602001808311610e5f57829003601f168201915b505050505090806001015490806002018054610e9790611f5a565b80601f0160208091040260200160405190810160405280929190818152602001828054610ec390611f5a565b8015610f0e5780601f10610ee557610100808354040283529160200191610f0e565b820191905f5260205f20905b815481529060010190602001808311610ef157829003601f168201915b505050505090806003018054610f2390611f5a565b80601f0160208091040260200160405190810160405280929190818152602001828054610f4f90611f5a565b8015610f9a5780601f10610f7157610100808354040283529160200191610f9a565b820191905f5260205f20905b815481529060010190602001808311610f7d57829003601f168201915b505050505090806004015490806005015f9054906101000a900460ff16908060050160019054906101000a900460ff1690806006015490806007015490806008015490806009015490508b565b5f428211611021576040517f769d11e400000000000000000000000000000000000000000000000000000000815260040160405180910390fd5b5f87878760405160200161103793929190611e6b565b6040516020818303038152906040528051906020012090505f60025f81548092919061106290611f8a565b9190505590506040518061016001604052808b81526020018381526020018781526020018681526020018581526020015f151581526020015f151581526020015f81526020015f81526020015f81526020015f8152505f808381526020019081526020015f205f820151815f0190816110db919061216e565b506020820151816001015560408201518160020190816110fb919061216e565b506060820151816003019081611111919061216e565b506080820151816004015560a0820151816005015f6101000a81548160ff02191690831515021790555060c08201518160050160016101000a81548160ff02191690831515021790555060e08201518160060155610100820151816007015561012082015181600801556101408201518160090155905050807f5418fb71faccfb684a9f1e04632b476389c6da2ade790502d8b141135d4aacce8b84876040516111bd9392919061223d565b60405180910390a28092505050979650505050505050565b5f805f8060015f8781526020019081526020015f205f8673ffffffffffffffffffffffffffffffffffffffff1673ffffffffffffffffffffffffffffffffffffffff1681526020019081526020015f209050805f01548160010154826002015f9054906101000a900460ff16935093509350509250925092565b60605f6060805f805f805f805f808c81526020019081526020015f209050805f01816001015482600201836003018460040154856005015f9054906101000a900460ff168660050160019054906101000a900460ff16876006015488600701548880546112bb90611f5a565b80601f01602080910402602001604051908101604052809291908181526020018280546112e790611f5a565b80156113325780601f1061130957610100808354040283529160200191611332565b820191905f5260205f20905b81548152906001019060200180831161131557829003601f168201915b5050505050985086805461134590611f5a565b80601f016020809104026020016040519081016040528092919081815260200182805461137190611f5a565b80156113bc5780601f10611393576101008083540402835291602001916113bc565b820191905f5260205f20905b81548152906001019060200180831161139f57829003601f168201915b505050505096508580546113cf90611f5a565b80601f01602080910402602001604051908101604052809291908181526020018280546113fb90611f5a565b80156114465780601f1061141d57610100808354040283529160200191611446565b820191905f5260205f20905b81548152906001019060200180831161142957829003601f168201915b50505050509550995099509950995099509950995099509950509193959799909294969850565b60025481565b6001602052815f5260405f20602052805f5260405f205f9150915050805f015490806001015490806002015f9054906101000a900460ff16905083565b5f73ffffffffffffffffffffffffffffffffffffffff82169050919050565b5f6114d9826114b0565b9050919050565b6114e9816114cf565b82525050565b5f6020820190506115025f8301846114e0565b92915050565b5f604051905090565b5f80fd5b5f80fd5b5f819050919050565b61152b81611519565b8114611535575f80fd5b50565b5f8135905061154681611522565b92915050565b5f6020828403121561156157611560611511565b5b5f61156e84828501611538565b91505092915050565b61158081611519565b82525050565b5f6040820190506115995f830185611577565b6115a66020830184611577565b9392505050565b6115b6816114cf565b81146115c0575f80fd5b50565b5f813590506115d1816115ad565b92915050565b5f602082840312156115ec576115eb611511565b5b5f6115f9848285016115c3565b91505092915050565b5f806040838503121561161857611617611511565b5b5f61162585828601611538565b9250506020611636858286016115c3565b9150509250929050565b5f80fd5b5f80fd5b5f601f19601f8301169050919050565b7f4e487b71000000000000000000000000000000000000000000000000000000005f52604160045260245ffd5b61168e82611648565b810181811067ffffffffffffffff821117156116ad576116ac611658565b5b80604052505050565b5f6116bf611508565b90506116cb8282611685565b919050565b5f67ffffffffffffffff8211156116ea576116e9611658565b5b6116f382611648565b9050602081019050919050565b828183375f83830152505050565b5f61172061171b846116d0565b6116b6565b90508281526020810184848401111561173c5761173b611644565b5b611747848285611700565b509392505050565b5f82601f83011261176357611762611640565b5b813561177384826020860161170e565b91505092915050565b5f8115159050919050565b6117908161177c565b811461179a575f80fd5b50565b5f813590506117ab81611787565b92915050565b5f67ffffffffffffffff8211156117cb576117ca611658565b5b6117d482611648565b9050602081019050919050565b5f6117f36117ee846117b1565b6116b6565b90508281526020810184848401111561180f5761180e611644565b5b61181a848285611700565b509392505050565b5f82601f83011261183657611835611640565b5b81356118468482602086016117e1565b91505092915050565b5f805f805f805f60e0888a03121561186a57611869611511565b5b5f6118778a828b01611538565b975050602088013567ffffffffffffffff81111561189857611897611515565b5b6118a48a828b0161174f565b965050604088013567ffffffffffffffff8111156118c5576118c4611515565b5b6118d18a828b0161174f565b955050606088013567ffffffffffffffff8111156118f2576118f1611515565b5b6118fe8a828b0161174f565b945050608061190f8a828b0161179d565b93505060a06119208a828b0161179d565b92505060c088013567ffffffffffffffff81111561194157611940611515565b5b61194d8a828b01611822565b91505092959891949750929550565b5f806040838503121561197257611971611511565b5b5f61197f85828601611538565b92505060206119908582860161179d565b9150509250929050565b5f81519050919050565b5f82825260208201905092915050565b5f5b838110156119d15780820151818401526020810190506119b6565b5f8484015250505050565b5f6119e68261199a565b6119f081856119a4565b9350611a008185602086016119b4565b611a0981611648565b840191505092915050565b5f819050919050565b611a2681611a14565b82525050565b611a358161177c565b82525050565b5f610160820190508181035f830152611a54818e6119dc565b9050611a63602083018d611a1d565b8181036040830152611a75818c6119dc565b90508181036060830152611a89818b6119dc565b9050611a98608083018a611577565b611aa560a0830189611a2c565b611ab260c0830188611a2c565b611abf60e0830187611577565b611acd610100830186611577565b611adb610120830185611577565b611ae9610140830184611577565b9c9b505050505050505050505050565b5f805f805f805f60e0888a031215611b1457611b13611511565b5b5f88013567ffffffffffffffff811115611b3157611b30611515565b5b611b3d8a828b0161174f565b975050602088013567ffffffffffffffff811115611b5e57611b5d611515565b5b611b6a8a828b0161174f565b965050604088013567ffffffffffffffff811115611b8b57611b8a611515565b5b611b978a828b0161174f565b955050606088013567ffffffffffffffff811115611bb857611bb7611515565b5b611bc48a828b0161174f565b945050608088013567ffffffffffffffff811115611be557611be4611515565b5b611bf18a828b0161174f565b93505060a088013567ffffffffffffffff811115611c1257611c11611515565b5b611c1e8a828b0161174f565b92505060c0611c2f8a828b01611538565b91505092959891949750929550565b5f602082019050611c515f830184611577565b92915050565b5f606082019050611c6a5f830186611577565b611c776020830185611577565b611c846040830184611a2c565b949350505050565b5f610120820190508181035f830152611ca5818c6119dc565b9050611cb4602083018b611a1d565b8181036040830152611cc6818a6119dc565b90508181036060830152611cda81896119dc565b9050611ce96080830188611577565b611cf660a0830187611a2c565b611d0360c0830186611a2c565b611d1060e0830185611577565b611d1e610100830184611577565b9a9950505050505050505050565b7f4e487b71000000000000000000000000000000000000000000000000000000005f52601160045260245ffd5b5f611d6382611519565b9150611d6e83611519565b9250828201905080821115611d8657611d85611d2c565b5b92915050565b5f611d9682611519565b9150611da183611519565b9250828202611daf81611519565b91508282048414831517611dc657611dc5611d2c565b5b5092915050565b7f4e487b71000000000000000000000000000000000000000000000000000000005f52601260045260245ffd5b5f611e0482611519565b9150611e0f83611519565b925082611e1f57611e1e611dcd565b5b828204905092915050565b5f81905092915050565b50565b5f611e425f83611e2a565b9150611e4d82611e34565b5f82019050919050565b5f611e6182611e37565b9150819050919050565b5f6060820190508181035f830152611e8381866119dc565b90508181036020830152611e9781856119dc565b90508181036040830152611eab81846119dc565b9050949350505050565b5f606082019050611ec85f830186611a2c565b8181036020830152611eda81856119dc565b90508181036040830152611eee81846119dc565b9050949350505050565b5f606082019050611f0b5f830186611a2c565b611f186020830185611577565b611f256040830184611577565b949350505050565b7f4e487b71000000000000000000000000000000000000000000000000000000005f52602260045260245ffd5b5f6002820490506001821680611f7157607f821691505b602082108103611f8457611f83611f2d565b5b50919050565b5f611f9482611519565b91507fffffffffffffffffffffffffffffffffffffffffffffffffffffffffffffffff8203611fc657611fc5611d2c565b5b600182019050919050565b5f819050815f5260205f209050919050565b5f6020601f8301049050919050565b5f82821b905092915050565b5f6008830261202d7fffffffffffffffffffffffffffffffffffffffffffffffffffffffffffffffff82611ff2565b6120378683611ff2565b95508019841693508086168417925050509392505050565b5f819050919050565b5f61207261206d61206884611519565b61204f565b611519565b9050919050565b5f819050919050565b61208b83612058565b61209f61209782612079565b848454611ffe565b825550505050565b5f90565b6120b36120a7565b6120be818484612082565b505050565b5b818110156120e1576120d65f826120ab565b6001810190506120c4565b5050565b601f821115612126576120f781611fd1565b61210084611fe3565b8101602085101561210f578190505b61212361211b85611fe3565b8301826120c3565b50505b505050565b5f82821c905092915050565b5f6121465f198460080261212b565b1980831691505092915050565b5f61215e8383612137565b9150826002028217905092915050565b6121778261199a565b67ffffffffffffffff8111156121905761218f611658565b5b61219a8254611f5a565b6121a58282856120e5565b5f60209050601f8311600181146121d6575f84156121c4578287015190505b6121ce8582612153565b865550612235565b601f1984166121e486611fd1565b5f5b8281101561220b578489015182556001820191506020850194506020810190506121e6565b868310156122285784890151612224601f891682612137565b8355505b6001600288020188555050505b505050505050565b5f6060820190508181035f83015261225581866119dc565b90506122646020830185611a1d565b6122716040830184611577565b94935050505056fea2646970667358221220677934c6bbab11e5d2c049bc354383a197ca0c9e933152603c861e46138df1c264736f6c63430008140033","linkReferences":{}},"methodIdentifiers":{"bet(uint256,bool)":"9a6d3aaa","bets(uint256,address)":"f644b3bb","claim(uint256)":"379607f5","createMarket(string,string,string,string,string,string,uint256)":"bd9366fd","getBet(uint256,address)":"e0950ddf","getMarket(uint256)":"eb44fdd3","getOdds(uint256)":"126c4166","getPotentialPayout(uint256,address)":"9754b31c","marketCount()":"ec979082","markets(uint256)":"b1283e77","owner()":"8da5cb5b","setTrustedSettler(address)":"768ad06e","settle(uint256,string,string,string,bool,bool,bytes)":"97d65f0a","trustedSettler()":"0904b959"},"id":19}