{"abi":[{"type":"constructor","inputs":[{"name":"_verifier","type":"address","internalType":"address"}],"stateMutability":"nonpayable"},{"type":"function","name":"bounties","inputs":[{"name":"","type":"uint256","internalType":"uint256"}],"outputs":[{"name":"buyer","type":"address","internalType":"address"},{"name":"repoHash","type":"bytes32","internalType":"bytes32"},{"name":"artifactHash","type":"bytes32","internalType":"bytes32"},{"name":"amount","type":"uint256","internalType":"uint256"},{"name":"claimed","type":"bool","internalType":"bool"}],"stateMutability":"view"},{"type":"function","name":"claim","inputs":[{"name":"bountyId","type":"uint256","internalType":"uint256"},{"name":"proof","type":"bytes","internalType":"bytes"},{"name":"publicInputs","type":"bytes32[]","internalType":"bytes32[]"}],"outputs":[],"stateMutability":"nonpayable"},{"type":"function","name":"computeRepoHash","inputs":[{"name":"repo","type":"string","internalType":"string"}],"outputs":[{"name":"","type":"bytes32","internalType":"bytes32"}],"stateMutability":"pure"},{"type":"function","name":"createBounty","inputs":[{"name":"repoHash","type":"bytes32","internalType":"bytes32"},{"name":"artifactHash","type":"bytes32","internalType":"bytes32"}],"outputs":[{"name":"id","type":"uint256","internalType":"uint256"}],"stateMutability":"payable"},{"type":"function","name":"nextBountyId","inputs":[],"outputs":[{"name":"","type":"uint256","internalType":"uint256"}],"stateMutability":"view"},{"type":"function","name":"verifier","inputs":[],"outputs":[{"name":"","type":"address","internalType":"contract ISigstoreVerifier"}],"stateMutability":"view"},{"type":"event","name":"BountyClaimed","inputs":[{"name":"id","type":"uint256","indexed":true,"internalType":"uint256"},{"name":"claimer","type":"address","indexed":false,"internalType":"address"},{"name":"commitSha","type":"bytes20","indexed":false,"internalType":"bytes20"}],"anonymous":false},{"type":"event","name":"BountyCreated","inputs":[{"name":"id","type":"uint256","indexed":true,"internalType":"uint256"},{"name":"buyer","type":"address","indexed":false,"internalType":"address"},{"name":"repoHash","type":"bytes32","indexed":false,"internalType":"bytes32"},{"name":"amount","type":"uint256","indexed":false,"internalType":"uint256"}],"anonymous":false},{"type":"error","name":"AlreadyClaimed","inputs":[]},{"type":"error","name":"ArtifactMismatch","inputs":[]},{"type":"error","name":"BountyNotFound","inputs":[]},{"type":"error","name":"RepoMismatch","inputs":[]},{"type":"error","name":"TransferFailed","inputs":[]}],"bytecode":{"object":"0x60a0604052348015600e575f5ffd5b5060405161082a38038061082a833981016040819052602b91603b565b6001600160a01b03166080526066565b5f60208284031215604a575f5ffd5b81516001600160a01b0381168114605f575f5ffd5b9392505050565b6080516107a66100845f395f81816069015261027001526107a65ff3fe608060405260043610610054575f3560e01c80632b7ac3f31461005857806338cba503146100a857806348ad6a05146100d5578063a04123ba146100f6578063dc2f874414610109578063fd14fad414610192575b5f5ffd5b348015610063575f5ffd5b5061008b7f000000000000000000000000000000000000000000000000000000000000000081565b6040516001600160a01b0390911681526020015b60405180910390f35b3480156100b3575f5ffd5b506100c76100c2366004610534565b6101a7565b60405190815260200161009f565b3480156100e0575f5ffd5b506100f46100ef366004610572565b6101ff565b005b6100c7610104366004610616565b610415565b348015610114575f5ffd5b5061015e610123366004610636565b5f60208190529081526040902080546001820154600283015460038401546004909401546001600160a01b0390931693919290919060ff1685565b604080516001600160a01b03909616865260208601949094529284019190915260608301521515608082015260a00161009f565b34801561019d575f5ffd5b506100c760015481565b5f600283836040516101ba92919061064d565b602060405180830381855afa1580156101d5573d5f5f3e3d5ffd5b5050506040513d601f19601f820116820180604052508101906101f8919061065c565b9392505050565b5f8581526020819052604081206003810154909103610231576040516324ce57e760e21b815260040160405180910390fd5b600481015460ff161561025757604051630c8d9eab60e31b815260040160405180910390fd5b604051630349ea7360e61b81525f906001600160a01b037f0000000000000000000000000000000000000000000000000000000000000000169063d27a9cc0906102ab908990899089908990600401610673565b606060405180830381865afa1580156102c6573d5f5f3e3d5ffd5b505050506040513d601f19601f820116820180604052508101906102ea91906106d5565b905081600101548160200151146103145760405163adff296160e01b815260040160405180910390fd5b60028201541580159061032c57506002820154815114155b1561034a5760405163798d003760e11b815260040160405180910390fd5b60048201805460ff1916600117905560038201546040515f9133918381818185875af1925050503d805f811461039b576040519150601f19603f3d011682016040523d82523d5f602084013e6103a0565b606091505b50509050806103c2576040516312171d8360e31b815260040160405180910390fd5b60408083015181513381526001600160601b0319909116602082015289917fc04ecba3853cedc5ddf4fb873b82c585a534c7ef86a5d168c8e8f7208e2792e4910160405180910390a25050505050505050565b600180545f91826104258361074c565b909155506040805160a0810182523380825260208083018881528385018881523460608087018281525f608089018181528b8252818852908a9020985189546001600160a01b0319166001600160a01b0390911617895594516001890155925160028801559151600387015591516004909501805460ff19169515159590951790945584519283529082018890529281019290925291925082917fcbe0121082248439b53b84ed308ad80b93586089521313eefedd6571a1b346e7910160405180910390a292915050565b5f5f83601f840112610500575f5ffd5b5081356001600160401b03811115610516575f5ffd5b60208301915083602082850101111561052d575f5ffd5b9250929050565b5f5f60208385031215610545575f5ffd5b82356001600160401b0381111561055a575f5ffd5b610566858286016104f0565b90969095509350505050565b5f5f5f5f5f60608688031215610586575f5ffd5b8535945060208601356001600160401b038111156105a2575f5ffd5b6105ae888289016104f0565b90955093505060408601356001600160401b038111156105cc575f5ffd5b8601601f810188136105dc575f5ffd5b80356001600160401b038111156105f1575f5ffd5b8860208260051b8401011115610605575f5ffd5b959894975092955050506020019190565b5f5f60408385031215610627575f5ffd5b50508035926020909101359150565b5f60208284031215610646575f5ffd5b5035919050565b818382375f9101908152919050565b5f6020828403121561066c575f5ffd5b5051919050565b60408152836040820152838560608301375f60608583018101829052601f19601f8701168301838103820160208501529081018490526001600160fb1b038411156106bc575f5ffd5b8360051b80866080840137016080019695505050505050565b5f60608284031280156106e6575f5ffd5b50604051606081016001600160401b038111828210171561071557634e487b7160e01b5f52604160045260245ffd5b604090815283518252602080850151908301528301516001600160601b031981168114610740575f5ffd5b60408201529392505050565b5f6001820161076957634e487b7160e01b5f52601160045260245ffd5b506001019056fea2646970667358221220afb8bd9764724ed40d69ab7d17bdef2e8c23627e7a784b261eb210a6a522a38564736f6c634300081e0033","linkReferences":{}},"methodIdentifiers":{"bounties(uint256)":"dc2f8744","claim(uint256,bytes,bytes32[])":"48ad6a05","computeRepoHash(string)":"38cba503","createBounty(bytes32,bytes32)":"a04123ba","nextBountyId()":"fd14fad4","verifier()":"2b7ac3f3"},"id":1}