{"abi":[{"type":"constructor","inputs":[{"name":"_honkVerifier","type":"address","internalType":"address"}],"stateMutability":"nonpayable"},{"type":"function","name":"decodePublicInputs","inputs":[{"name":"publicInputs","type":"bytes32[]","internalType":"bytes32[]"}],"outputs":[{"name":"attestation","type":"tuple","internalType":"struct ISigstoreVerifier.Attestation","components":[{"name":"artifactHash","type":"bytes32","internalType":"bytes32"},{"name":"repoHash","type":"bytes32","internalType":"bytes32"},{"name":"commitSha","type":"bytes20","internalType":"bytes20"}]}],"stateMutability":"pure"},{"type":"function","name":"honk","inputs":[],"outputs":[{"name":"","type":"address","internalType":"contract HonkVerifier"}],"stateMutability":"view"},{"type":"function","name":"verify","inputs":[{"name":"proof","type":"bytes","internalType":"bytes"},{"name":"publicInputs","type":"bytes32[]","internalType":"bytes32[]"}],"outputs":[{"name":"","type":"bool","internalType":"bool"}],"stateMutability":"view"},{"type":"function","name":"verifyAndDecode","inputs":[{"name":"proof","type":"bytes","internalType":"bytes"},{"name":"publicInputs","type":"bytes32[]","internalType":"bytes32[]"}],"outputs":[{"name":"attestation","type":"tuple","internalType":"struct ISigstoreVerifier.Attestation","components":[{"name":"artifactHash","type":"bytes32","internalType":"bytes32"},{"name":"repoHash","type":"bytes32","internalType":"bytes32"},{"name":"commitSha","type":"bytes20","internalType":"bytes20"}]}],"stateMutability":"view"},{"type":"error","name":"InvalidProof","inputs":[]},{"type":"error","name":"InvalidPublicInputsLength","inputs":[]}],"bytecode":{"object":"0x60a0604052348015600e575f5ffd5b506040516106b83803806106b8833981016040819052602b91603b565b6001600160a01b03166080526066565b5f60208284031215604a575f5ffd5b81516001600160a01b0381168114605f575f5ffd5b9392505050565b60805161062d61008b5f395f81816053015281816101410152610204015261062d5ff3fe608060405234801561000f575f5ffd5b506004361061004a575f3560e01c806314274baa1461004e57806393eb43c714610092578063d27a9cc0146100d1578063ea50d0e4146100e4575b5f5ffd5b6100757f000000000000000000000000000000000000000000000000000000000000000081565b6040516001600160a01b0390911681526020015b60405180910390f35b6100a56100a0366004610437565b610107565b604080518251815260208084015190820152918101516001600160601b03191690820152606001610089565b6100a56100df366004610475565b610122565b6100f76100f2366004610475565b6101eb565b6040519015158152602001610089565b61010f6103c8565b610119838361027e565b90505b92915050565b61012a6103c8565b604051633a94343960e21b81526001600160a01b037f0000000000000000000000000000000000000000000000000000000000000000169063ea50d0e49061017c90889088908890889060040161050a565b602060405180830381865afa158015610197573d5f5f3e3d5ffd5b505050506040513d601f19601f820116820180604052508101906101bb919061056c565b6101d8576040516309bde33960e01b815260040160405180910390fd5b6101e2838361027e565b95945050505050565b604051633a94343960e21b81525f906001600160a01b037f0000000000000000000000000000000000000000000000000000000000000000169063ea50d0e49061023f90889088908890889060040161050a565b602060405180830381865afa15801561025a573d5f5f3e3d5ffd5b505050506040513d601f19601f820116820180604052508101906101e2919061056c565b6102866103c8565b605482146102a757604051633e15742360e01b815260040160405180910390fd5b5f5b60208110156102f5576102bd8160086105a6565b6102c89060f86105bd565b8484838181106102da576102da6105d0565b85516020909102929092013590921b178352506001016102a9565b505f5b60208110156103545761030c8160086105a6565b6103179060f86105bd565b84846103248460206105e4565b818110610333576103336105d0565b6020868101805192909102939093013590931b9092179052506001016102f8565b505f5b60148110156103c15761036b8160086105a6565b6103769060986105bd565b84846103838460406105e4565b818110610392576103926105d0565b604086018051602092909202939093013590931b60601b9092176001600160601b031916905250600101610357565b5092915050565b60405180606001604052805f81526020015f81526020015f6001600160601b03191681525090565b5f5f83601f840112610400575f5ffd5b5081356001600160401b03811115610416575f5ffd5b6020830191508360208260051b8501011115610430575f5ffd5b9250929050565b5f5f60208385031215610448575f5ffd5b82356001600160401b0381111561045d575f5ffd5b610469858286016103f0565b90969095509350505050565b5f5f5f5f60408587031215610488575f5ffd5b84356001600160401b0381111561049d575f5ffd5b8501601f810187136104ad575f5ffd5b80356001600160401b038111156104c2575f5ffd5b8760208284010111156104d3575f5ffd5b6020918201955093508501356001600160401b038111156104f2575f5ffd5b6104fe878288016103f0565b95989497509550505050565b60408152836040820152838560608301375f60608583018101829052601f19601f8701168301838103820160208501529081018490526001600160fb1b03841115610553575f5ffd5b8360051b80866080840137016080019695505050505050565b5f6020828403121561057c575f5ffd5b8151801515811461058b575f5ffd5b9392505050565b634e487b7160e01b5f52601160045260245ffd5b808202811582820484141761011c5761011c610592565b8181038181111561011c5761011c610592565b634e487b7160e01b5f52603260045260245ffd5b8082018082111561011c5761011c61059256fea2646970667358221220a26e17aeb2d98051f933e851d9e5ae88d259b50c9c44e734e3d3de02ea45313a64736f6c634300081e0033","linkReferences":{}},"methodIdentifiers":{"decodePublicInputs(bytes32[])":"93eb43c7","honk()":"14274baa","verify(bytes,bytes32[])":"ea50d0e4","verifyAndDecode(bytes,bytes32[])":"d27a9cc0"},"id":2}