{"abi":[{"type":"constructor","inputs":[{"name":"_verifier","type":"address","internalType":"address"}],"stateMutability":"nonpayable"},{"type":"receive","stateMutability":"payable"},{"type":"function","name":"COOLDOWN","inputs":[],"outputs":[{"name":"","type":"uint256","internalType":"uint256"}],"stateMutability":"view"},{"type":"function","name":"MAX_CLAIM","inputs":[],"outputs":[{"name":"","type":"uint256","internalType":"uint256"}],"stateMutability":"view"},{"type":"function","name":"RESERVE_DIVISOR","inputs":[],"outputs":[{"name":"","type":"uint256","internalType":"uint256"}],"stateMutability":"view"},{"type":"function","name":"canClaim","inputs":[{"name":"repoHash","type":"bytes32","internalType":"bytes32"}],"outputs":[{"name":"","type":"bool","internalType":"bool"},{"name":"nextClaimTime","type":"uint256","internalType":"uint256"}],"stateMutability":"view"},{"type":"function","name":"claim","inputs":[{"name":"proof","type":"bytes","internalType":"bytes"},{"name":"publicInputs","type":"bytes32[]","internalType":"bytes32[]"},{"name":"recipient","type":"address","internalType":"address payable"}],"outputs":[],"stateMutability":"nonpayable"},{"type":"function","name":"claimAmount","inputs":[],"outputs":[{"name":"","type":"uint256","internalType":"uint256"}],"stateMutability":"view"},{"type":"function","name":"lastClaim","inputs":[{"name":"","type":"bytes32","internalType":"bytes32"}],"outputs":[{"name":"","type":"uint256","internalType":"uint256"}],"stateMutability":"view"},{"type":"function","name":"requiredCommitSha","inputs":[],"outputs":[{"name":"","type":"bytes20","internalType":"bytes20"}],"stateMutability":"view"},{"type":"function","name":"requiredRepoHash","inputs":[],"outputs":[{"name":"","type":"bytes32","internalType":"bytes32"}],"stateMutability":"view"},{"type":"function","name":"setRequirements","inputs":[{"name":"_repoHash","type":"bytes32","internalType":"bytes32"},{"name":"_commitSha","type":"bytes20","internalType":"bytes20"}],"outputs":[],"stateMutability":"nonpayable"},{"type":"function","name":"verifier","inputs":[],"outputs":[{"name":"","type":"address","internalType":"contract ISigstoreVerifier"}],"stateMutability":"view"},{"type":"event","name":"Claimed","inputs":[{"name":"recipient","type":"address","indexed":true,"internalType":"address"},{"name":"repoHash","type":"bytes32","indexed":true,"internalType":"bytes32"},{"name":"amount","type":"uint256","indexed":false,"internalType":"uint256"}],"anonymous":false},{"type":"event","name":"RequirementsUpdated","inputs":[{"name":"repoHash","type":"bytes32","indexed":false,"internalType":"bytes32"},{"name":"commitSha","type":"bytes20","indexed":false,"internalType":"bytes20"}],"anonymous":false}],"bytecode":{"object":"0x60a0604052348015600e575f5ffd5b50604051610916380380610916833981016040819052602b91603b565b6001600160a01b03166080526066565b5f60208284031215604a575f5ffd5b81516001600160a01b0381168114605f575f5ffd5b9392505050565b6080516108926100845f395f818160eb015261028201526108925ff3fe60806040526004361061008e575f3560e01c806301b65b7114610099578063137fef12146100c65780632b7ac3f3146100da5780636bac8de214610125578063830953ab1461015057806384ad8c6314610164578063a2724a4d14610179578063ba558e541461018f578063dbe763f6146101c1578063e6b38549146101e2578063eaaa98fa14610201575f5ffd5b3661009557005b5f5ffd5b3480156100a4575f5ffd5b506100b366038d7ea4c6800081565b6040519081526020015b60405180910390f35b3480156100d1575f5ffd5b506100b3601481565b3480156100e5575f5ffd5b5061010d7f000000000000000000000000000000000000000000000000000000000000000081565b6040516001600160a01b0390911681526020016100bd565b348015610130575f5ffd5b506100b361013f3660046105c8565b5f6020819052908152604090205481565b34801561015b575f5ffd5b506100b3610237565b34801561016f575f5ffd5b506100b360015481565b348015610184575f5ffd5b506100b36201518081565b34801561019a575f5ffd5b506002546101a89060601b81565b6040516001600160601b031990911681526020016100bd565b3480156101cc575f5ffd5b506101e06101db366004610641565b610269565b005b3480156101ed575f5ffd5b506101e06101fc366004610702565b610520565b34801561020c575f5ffd5b5061022061021b3660046105c8565b610581565b6040805192151583526020830191909152016100bd565b5f80610244601447610744565b905066038d7ea4c68000811161025a5780610263565b66038d7ea4c680005b91505090565b604051630349ea7360e61b81525f906001600160a01b037f0000000000000000000000000000000000000000000000000000000000000000169063d27a9cc0906102bd908990899089908990600401610763565b606060405180830381865afa1580156102d8573d5f5f3e3d5ffd5b505050506040513d601f19601f820116820180604052508101906102fc91906107c5565b6001549091501561034e5760015481602001511461034e5760405162461bcd60e51b815260206004820152600a60248201526957726f6e67207265706f60b01b60448201526064015b60405180910390fd5b60025460601b6001600160601b031916156103ba5760025460408201516001600160601b031990811660609290921b16146103ba5760405162461bcd60e51b815260206004820152600c60248201526b15dc9bdb99c818dbdb5b5a5d60a21b6044820152606401610345565b6020808201515f90815290819052604090205462015180906103dc9042610830565b10156104225760405162461bcd60e51b8152602060048201526015602482015274416c726561647920636c61696d656420746f64617960581b6044820152606401610345565b6020808201515f9081529081905260408120429055610442601447610744565b905066038d7ea4c6800081111561045d575066038d7ea4c680005b5f811161049b5760405162461bcd60e51b815260206004820152600c60248201526b46617563657420656d70747960a01b6044820152606401610345565b8160200151836001600160a01b03167f9b01158d4bc10c112ba32b5240cda97e49e2eb86021f03f6a0f460342ac4dfda836040516104db91815260200190565b60405180910390a36040516001600160a01b0384169082156108fc029083905f818181858888f19350505050158015610516573d5f5f3e3d5ffd5b5050505050505050565b6001829055600280546001600160a01b031916606083901c179055604080518381526001600160601b0319831660208201527f298c8d930fb227643f251be2f89ce661c4a66e60b7bb533ac645e22e175de4a1910160405180910390a15050565b5f8181526020819052604081205481906201518061059f8242610830565b106105b057506001935f9350915050565b5f6105be6201518083610849565b9250925050915091565b5f602082840312156105d8575f5ffd5b5035919050565b5f5f83601f8401126105ef575f5ffd5b5081356001600160401b03811115610605575f5ffd5b6020830191508360208260051b850101111561061f575f5ffd5b9250929050565b80356001600160a01b038116811461063c575f5ffd5b919050565b5f5f5f5f5f60608688031215610655575f5ffd5b85356001600160401b0381111561066a575f5ffd5b8601601f8101881361067a575f5ffd5b80356001600160401b0381111561068f575f5ffd5b8860208284010111156106a0575f5ffd5b6020918201965094508601356001600160401b038111156106bf575f5ffd5b6106cb888289016105df565b90945092506106de905060408701610626565b90509295509295909350565b6001600160601b0319811681146106ff575f5ffd5b50565b5f5f60408385031215610713575f5ffd5b823591506020830135610725816106ea565b809150509250929050565b634e487b7160e01b5f52601160045260245ffd5b5f8261075e57634e487b7160e01b5f52601260045260245ffd5b500490565b60408152836040820152838560608301375f60608583018101829052601f19601f8701168301838103820160208501529081018490526001600160fb1b038411156107ac575f5ffd5b8360051b80866080840137016080019695505050505050565b5f60608284031280156107d6575f5ffd5b50604051606081016001600160401b038111828210171561080557634e487b7160e01b5f52604160045260245ffd5b60409081528351825260208085015190830152830151610824816106ea565b60408201529392505050565b8181038181111561084357610843610730565b92915050565b808201808211156108435761084361073056fea2646970667358221220823b699623544a59f529cb32fccf64dd8e91e8a805709a94f5f03349dd89aef064736f6c634300081e0033","linkReferences":{}},"methodIdentifiers":{"COOLDOWN()":"a2724a4d","MAX_CLAIM()":"01b65b71","RESERVE_DIVISOR()":"137fef12","canClaim(bytes32)":"eaaa98fa","claim(bytes,bytes32[],address)":"dbe763f6","claimAmount()":"830953ab","lastClaim(bytes32)":"6bac8de2","requiredCommitSha()":"ba558e54","requiredRepoHash()":"84ad8c63","setRequirements(bytes32,bytes20)":"e6b38549","verifier()":"2b7ac3f3"},"id":0}