{"abi":[{"type":"constructor","inputs":[{"name":"configFilePath","type":"string","internalType":"string"},{"name":"writeToFile","type":"bool","internalType":"bool"}],"stateMutability":"nonpayable"},{"type":"function","name":"exists","inputs":[{"name":"key","type":"string","internalType":"string"}],"outputs":[{"name":"","type":"bool","internalType":"bool"}],"stateMutability":"view"},{"type":"function","name":"exists","inputs":[{"name":"chain_id","type":"uint256","internalType":"uint256"},{"name":"key","type":"string","internalType":"string"}],"outputs":[{"name":"","type":"bool","internalType":"bool"}],"stateMutability":"view"},{"type":"function","name":"get","inputs":[{"name":"key","type":"string","internalType":"string"}],"outputs":[{"name":"","type":"tuple","internalType":"struct Variable","components":[{"name":"ty","type":"tuple","internalType":"struct Type","components":[{"name":"kind","type":"uint8","internalType":"enum TypeKind"},{"name":"isArray","type":"bool","internalType":"bool"}]},{"name":"data","type":"bytes","internalType":"bytes"}]}],"stateMutability":"view"},{"type":"function","name":"get","inputs":[{"name":"chain_id","type":"uint256","internalType":"uint256"},{"name":"key","type":"string","internalType":"string"}],"outputs":[{"name":"","type":"tuple","internalType":"struct Variable","components":[{"name":"ty","type":"tuple","internalType":"struct Type","components":[{"name":"kind","type":"uint8","internalType":"enum TypeKind"},{"name":"isArray","type":"bool","internalType":"bool"}]},{"name":"data","type":"bytes","internalType":"bytes"}]}],"stateMutability":"view"},{"type":"function","name":"getChainIds","inputs":[],"outputs":[{"name":"","type":"uint256[]","internalType":"uint256[]"}],"stateMutability":"view"},{"type":"function","name":"getRpcUrl","inputs":[],"outputs":[{"name":"","type":"string","internalType":"string"}],"stateMutability":"view"},{"type":"function","name":"getRpcUrl","inputs":[{"name":"chainId","type":"uint256","internalType":"uint256"}],"outputs":[{"name":"","type":"string","internalType":"string"}],"stateMutability":"view"},{"type":"function","name":"resolveChainId","inputs":[{"name":"aliasOrId","type":"string","internalType":"string"}],"outputs":[{"name":"","type":"uint256","internalType":"uint256"}],"stateMutability":"view"},{"type":"function","name":"set","inputs":[{"name":"chainId","type":"uint256","internalType":"uint256"},{"name":"key","type":"string","internalType":"string"},{"name":"value","type":"int256","internalType":"int256"}],"outputs":[],"stateMutability":"nonpayable"},{"type":"function","name":"set","inputs":[{"name":"chainId","type":"uint256","internalType":"uint256"},{"name":"key","type":"string","internalType":"string"},{"name":"value","type":"bytes32[]","internalType":"bytes32[]"}],"outputs":[],"stateMutability":"nonpayable"},{"type":"function","name":"set","inputs":[{"name":"chainId","type":"uint256","internalType":"uint256"},{"name":"key","type":"string","internalType":"string"},{"name":"value","type":"uint256","internalType":"uint256"}],"outputs":[],"stateMutability":"nonpayable"},{"type":"function","name":"set","inputs":[{"name":"key","type":"string","internalType":"string"},{"name":"value","type":"bytes","internalType":"bytes"}],"outputs":[],"stateMutability":"nonpayable"},{"type":"function","name":"set","inputs":[{"name":"key","type":"string","internalType":"string"},{"name":"value","type":"bytes32","internalType":"bytes32"}],"outputs":[],"stateMutability":"nonpayable"},{"type":"function","name":"set","inputs":[{"name":"key","type":"string","internalType":"string"},{"name":"value","type":"int256","internalType":"int256"}],"outputs":[],"stateMutability":"nonpayable"},{"type":"function","name":"set","inputs":[{"name":"chainId","type":"uint256","internalType":"uint256"},{"name":"key","type":"string","internalType":"string"},{"name":"value","type":"bytes","internalType":"bytes"}],"outputs":[],"stateMutability":"nonpayable"},{"type":"function","name":"set","inputs":[{"name":"key","type":"string","internalType":"string"},{"name":"value","type":"string[]","internalType":"string[]"}],"outputs":[],"stateMutability":"nonpayable"},{"type":"function","name":"set","inputs":[{"name":"chainId","type":"uint256","internalType":"uint256"},{"name":"key","type":"string","internalType":"string"},{"name":"value","type":"address","internalType":"address"}],"outputs":[],"stateMutability":"nonpayable"},{"type":"function","name":"set","inputs":[{"name":"chainId","type":"uint256","internalType":"uint256"},{"name":"key","type":"string","internalType":"string"},{"name":"value","type":"address[]","internalType":"address[]"}],"outputs":[],"stateMutability":"nonpayable"},{"type":"function","name":"set","inputs":[{"name":"chainId","type":"uint256","internalType":"uint256"},{"name":"key","type":"string","internalType":"string"},{"name":"value","type":"string","internalType":"string"}],"outputs":[],"stateMutability":"nonpayable"},{"type":"function","name":"set","inputs":[{"name":"key","type":"string","internalType":"string"},{"name":"value","type":"uint256[]","internalType":"uint256[]"}],"outputs":[],"stateMutability":"nonpayable"},{"type":"function","name":"set","inputs":[{"name":"key","type":"string","internalType":"string"},{"name":"value","type":"address[]","internalType":"address[]"}],"outputs":[],"stateMutability":"nonpayable"},{"type":"function","name":"set","inputs":[{"name":"key","type":"string","internalType":"string"},{"name":"value","type":"uint256","internalType":"uint256"}],"outputs":[],"stateMutability":"nonpayable"},{"type":"function","name":"set","inputs":[{"name":"chainId","type":"uint256","internalType":"uint256"},{"name":"key","type":"string","internalType":"string"},{"name":"value","type":"int256[]","internalType":"int256[]"}],"outputs":[],"stateMutability":"nonpayable"},{"type":"function","name":"set","inputs":[{"name":"chainId","type":"uint256","internalType":"uint256"},{"name":"key","type":"string","internalType":"string"},{"name":"value","type":"bytes[]","internalType":"bytes[]"}],"outputs":[],"stateMutability":"nonpayable"},{"type":"function","name":"set","inputs":[{"name":"key","type":"string","internalType":"string"},{"name":"value","type":"address","internalType":"address"}],"outputs":[],"stateMutability":"nonpayable"},{"type":"function","name":"set","inputs":[{"name":"chainId","type":"uint256","internalType":"uint256"},{"name":"key","type":"string","internalType":"string"},{"name":"value","type":"bool","internalType":"bool"}],"outputs":[],"stateMutability":"nonpayable"},{"type":"function","name":"set","inputs":[{"name":"key","type":"string","internalType":"string"},{"name":"value","type":"bool","internalType":"bool"}],"outputs":[],"stateMutability":"nonpayable"},{"type":"function","name":"set","inputs":[{"name":"key","type":"string","internalType":"string"},{"name":"value","type":"bytes[]","internalType":"bytes[]"}],"outputs":[],"stateMutability":"nonpayable"},{"type":"function","name":"set","inputs":[{"name":"chainId","type":"uint256","internalType":"uint256"},{"name":"key","type":"string","internalType":"string"},{"name":"value","type":"bytes32","internalType":"bytes32"}],"outputs":[],"stateMutability":"nonpayable"},{"type":"function","name":"set","inputs":[{"name":"chainId","type":"uint256","internalType":"uint256"},{"name":"key","type":"string","internalType":"string"},{"name":"value","type":"string[]","internalType":"string[]"}],"outputs":[],"stateMutability":"nonpayable"},{"type":"function","name":"set","inputs":[{"name":"chainId","type":"uint256","internalType":"uint256"},{"name":"key","type":"string","internalType":"string"},{"name":"value","type":"uint256[]","internalType":"uint256[]"}],"outputs":[],"stateMutability":"nonpayable"},{"type":"function","name":"set","inputs":[{"name":"key","type":"string","internalType":"string"},{"name":"value","type":"int256[]","internalType":"int256[]"}],"outputs":[],"stateMutability":"nonpayable"},{"type":"function","name":"set","inputs":[{"name":"chainId","type":"uint256","internalType":"uint256"},{"name":"key","type":"string","internalType":"string"},{"name":"value","type":"bool[]","internalType":"bool[]"}],"outputs":[],"stateMutability":"nonpayable"},{"type":"function","name":"set","inputs":[{"name":"key","type":"string","internalType":"string"},{"name":"value","type":"bytes32[]","internalType":"bytes32[]"}],"outputs":[],"stateMutability":"nonpayable"},{"type":"function","name":"set","inputs":[{"name":"key","type":"string","internalType":"string"},{"name":"value","type":"string","internalType":"string"}],"outputs":[],"stateMutability":"nonpayable"},{"type":"function","name":"set","inputs":[{"name":"key","type":"string","internalType":"string"},{"name":"value","type":"bool[]","internalType":"bool[]"}],"outputs":[],"stateMutability":"nonpayable"},{"type":"function","name":"writeUpdatesBackToFile","inputs":[{"name":"enabled","type":"bool","internalType":"bool"}],"outputs":[],"stateMutability":"nonpayable"},{"type":"error","name":"AlreadyInitialized","inputs":[{"name":"key","type":"string","internalType":"string"}]},{"type":"error","name":"ChainNotInitialized","inputs":[{"name":"chainId","type":"uint256","internalType":"uint256"}]},{"type":"error","name":"InvalidChainKey","inputs":[{"name":"aliasOrId","type":"string","internalType":"string"}]},{"type":"error","name":"TypeMismatch","inputs":[{"name":"expected","type":"string","internalType":"string"},{"name":"actual","type":"string","internalType":"string"}]},{"type":"error","name":"UnableToParseVariable","inputs":[{"name":"key","type":"string","internalType":"string"}]},{"type":"error","name":"WriteToFileInForbiddenCtxt","inputs":[]}],"bytecode":{"object":"0x608060405234801561000f575f5ffd5b50604051615d08380380615d0883398101604081905261002e916118c2565b8080156100a757506040516364af255d60e01b81525f516020615ce85f395f51905f52906364af255d90610066906004908101611920565b602060405180830381865afa158015610081573d5f5f3e3d5ffd5b505050506040513d601f19601f820116820180604052508101906100a59190611946565b155b156100c5576040516305d79a4360e31b815260040160405180910390fd5b5f6100d083826119ea565b506005805460ff19168215151790556040516360f9bb1160e01b81525f905f516020615ce85f395f51905f529063ddd2128d9082906360f9bb1190610119908890600401611ad2565b5f60405180830381865afa158015610133573d5f5f3e3d5ffd5b505050506040513d5f823e601f3d908101601f1916820160405261015a9190810190611ae4565b6040518263ffffffff1660e01b81526004016101769190611ad2565b5f604051808303815f875af1158015610191573d5f5f3e3d5ffd5b505050506040513d5f823e601f3d908101601f191682016040526101b89190810190611ae4565b604051634095225960e11b81529091505f905f516020615ce85f395f51905f529063812a44b2906101ed908590600401611b1d565b5f60405180830381865afa158015610207573d5f5f3e3d5ffd5b505050506040513d5f823e601f3d908101601f1916820160405261022e9190810190611b74565b90505f5b815181101561074d575f82828151811061024e5761024e611c28565b602002602001015190507f885cb69240a935d632d79c317109709ecfa91a80626ff3989d68f67f5b1dd12d5f1c6001600160a01b031663812a44b2858360405160200161029b9190611c53565b6040516020818303038152906040526040518363ffffffff1660e01b81526004016102c7929190611c69565b5f60405180830381865afa1580156102e1573d5f5f3e3d5ffd5b505050506040513d5f823e601f3d908101601f191682016040526103089190810190611b74565b515f036103155750610745565b5f61031f82610757565b6001805480820182555f919091529091507fb10e2d527612073b26eecdfd717e6a320cf44b4afac2b0732d9fcbe2b7fa0cf60161035c83826119ea565b506040515f516020615ce85f395f51905f5290638bb8dd43908790610385908690602001611c96565b6040516020818303038152906040526040518363ffffffff1660e01b81526004016103b1929190611c69565b5f60405180830381865afa9250505080156103ed57506040513d5f823e601f3d908101601f191682016040526103ea9190810190611ae4565b60015b6104e65760405163975a6ce960e01b81525f516020615ce85f395f51905f529063ddd2128d90829063975a6ce990610429908790600401611ad2565b5f60405180830381865afa158015610443573d5f5f3e3d5ffd5b505050506040513d5f823e601f3d908101601f1916820160405261046a9190810190611ae4565b6040518263ffffffff1660e01b81526004016104869190611ad2565b5f604051808303815f875af11580156104a1573d5f5f3e3d5ffd5b505050506040513d5f823e601f3d908101601f191682016040526104c89190810190611ae4565b5f828152600260205260409020906104e090826119ea565b50610573565b60405163ddd2128d60e01b81525f516020615ce85f395f51905f529063ddd2128d90610516908490600401611ad2565b5f604051808303815f875af1158015610531573d5f5f3e3d5ffd5b505050506040513d5f823e601f3d908101601f191682016040526105589190810190611ae4565b5f8381526002602052604090209061057090826119ea565b50505b60015b600760ff821611610741575f8160ff1660078111156105975761059761190c565b90505f846105b58360078111156105b0576105b061190c565b610866565b6040516020016105c6929190611cc9565b60408051601f1981840301815290829052634095225960e11b825291505f516020615ce85f395f51905f529063812a44b290610608908b908590600401611c69565b5f60405180830381865afa92505050801561064457506040513d5f823e601f3d908101601f191682016040526106419190810190611b74565b60015b1561072c575f5b8151811015610729575f82828151811061066757610667611c28565b602002602001015190505f60078111156106835761068361190c565b5f8881526004602052604090819020905161069f908490611cf3565b9081526040519081900360200190205460ff1660078111156106c3576106c361190c565b036106fc576106f78b85836040516020016106df929190611cfe565b60408051601f19818403018152919052898489610a1f565b610720565b8060405163038a07f760e51b81526004016107179190611ad2565b60405180910390fd5b5060010161064b565b50505b5050808061073990611d09565b915050610576565b5050505b600101610232565b5050505050612204565b60405163fa91454d60e01b81525f905f516020615ce85f395f51905f529063fa91454d90610789908590600401611ad2565b602060405180830381865afa9250505080156107c2575060408051601f3d908101601f191682019092526107bf91810190611d33565b60015b61085b57604051634cc1c2bb60e01b81525f516020615ce85f395f51905f5290634cc1c2bb906107f6908590600401611ad2565b5f60405180830381865afa92505050801561083257506040513d5f823e601f3d908101601f1916820160405261082f9190810190611d4a565b60015b61085157816040516397aa94df60e01b81526004016107179190611ad2565b6020015192915050565b92915050565b919050565b6060600182600781111561087c5761087c61190c565b036108a1575050604080518082019091526004815263189bdbdb60e21b602082015290565b60028260078111156108b5576108b561190c565b036108dd5750506040805180820190915260078152666164647265737360c81b602082015290565b60038260078111156108f1576108f161190c565b03610919575050604080518082019091526007815266313cba32b9999960c91b602082015290565b600482600781111561092d5761092d61190c565b036109525750506040805180820190915260048152631d5a5b9d60e21b602082015290565b60058260078111156109665761096661190c565b0361098a5750506040805180820190915260038152621a5b9d60ea1b602082015290565b600682600781111561099e5761099e61190c565b036109c5575050604080518082019091526006815265737472696e6760d01b602082015290565b60078260078111156109d9576109d961190c565b036109ff575050604080518082019091526005815264627974657360d81b602082015290565b50506040805180820190915260048152636e6f6e6560e01b602082015290565b5f6001826007811115610a3457610a3461190c565b03610c8257604051636986e76b60e11b81525f516020615ce85f395f51905f529063d30dced690610a6b9089908990600401611c69565b602060405180830381865afa925050508015610aa4575060408051601f3d908101601f19168201909252610aa191810190611946565b60015b610bfc5760405163093e7f4d60e11b81525f516020615ce85f395f51905f529063127cfe9a90610ada9089908990600401611c69565b5f60405180830381865afa925050508015610b1657506040513d5f823e601f3d908101601f19168201604052610b139190810190611e12565b60015b15610bf75780604051602001610b2c9190611ea9565b60408051601f198184030181528282525f8881526003602052919091209091610b56908790611cf3565b90815260200160405180910390209081610b7091906119ea565b50604080518082019091528060015b815260016020918201525f87815260049091526040908190209051610ba5908790611cf3565b90815260405190819003602001902081518154829060ff19166001836007811115610bd257610bd261190c565b02179055506020919091015181549015156101000261ff001990911617905550600190505b6117ae565b6040805182151560208201520160408051601f198184030181528282525f8881526003602052919091209091610c33908790611cf3565b90815260200160405180910390209081610c4d91906119ea565b50604080518082019091528060015b81525f602091820181905287815260049091526040908190209051610ba5908790611cf3565b6002826007811115610c9657610c9661190c565b03610e5057604051631979f21160e21b81525f516020615ce85f395f51905f52906365e7c84490610ccd9089908990600401611c69565b602060405180830381865afa925050508015610d06575060408051601f3d908101601f19168201909252610d0391810190611f03565b60015b610de5576040516365c428e760e01b81525f516020615ce85f395f51905f52906365c428e790610d3c9089908990600401611c69565b5f60405180830381865afa925050508015610d7857506040513d5f823e601f3d908101601f19168201604052610d759190810190611f1c565b60015b15610bf75780604051602001610d8e9190611fa9565b60408051601f198184030181528282525f8881526003602052919091209091610db8908790611cf3565b90815260200160405180910390209081610dd291906119ea565b5060408051808201909152806002610b7f565b604080516001600160a01b03831660208201520160408051601f198184030181528282525f8881526003602052919091209091610e23908790611cf3565b90815260200160405180910390209081610e3d91906119ea565b5060408051808201909152806002610c5c565b6003826007811115610e6457610e6461190c565b03611016576040516308e2148160e41b81525f516020615ce85f395f51905f5290638e21481090610e9b9089908990600401611c69565b602060405180830381865afa925050508015610ed4575060408051601f3d908101601f19168201909252610ed191810190611d33565b60015b610fb357604051633e716f8160e01b81525f516020615ce85f395f51905f5290633e716f8190610f0a9089908990600401611c69565b5f60405180830381865afa925050508015610f4657506040513d5f823e601f3d908101601f19168201604052610f439190810190611fe9565b60015b15610bf75780604051602001610f5c919061206f565b60408051601f198184030181528282525f8881526003602052919091209091610f86908790611cf3565b90815260200160405180910390209081610fa091906119ea565b5060408051808201909152806003610b7f565b60408051602081018390520160408051601f198184030181528282525f8881526003602052919091209091610fe9908790611cf3565b9081526020016040518091039020908161100391906119ea565b5060408051808201909152806003610c5c565b600482600781111561102a5761102a61190c565b036111dc5760405163cc7b048760e01b81525f516020615ce85f395f51905f529063cc7b0487906110619089908990600401611c69565b602060405180830381865afa92505050801561109a575060408051601f3d908101601f1916820190925261109791810190611d33565b60015b611179576040516316bbe4f960e31b81525f516020615ce85f395f51905f529063b5df27c8906110d09089908990600401611c69565b5f60405180830381865afa92505050801561110c57506040513d5f823e601f3d908101601f191682016040526111099190810190611fe9565b60015b15610bf75780604051602001611122919061206f565b60408051601f198184030181528282525f888152600360205291909120909161114c908790611cf3565b9081526020016040518091039020908161116691906119ea565b5060408051808201909152806004610b7f565b60408051602081018390520160408051601f198184030181528282525f88815260036020529190912090916111af908790611cf3565b908152602001604051809103902090816111c991906119ea565b5060408051808201909152806004610c5c565b60058260078111156111f0576111f061190c565b036113a25760405163c135073960e01b81525f516020615ce85f395f51905f529063c1350739906112279089908990600401611c69565b602060405180830381865afa925050508015611260575060408051601f3d908101601f1916820190925261125d91810190611d33565b60015b61133f576040516369a9157360e11b81525f516020615ce85f395f51905f529063d3522ae6906112969089908990600401611c69565b5f60405180830381865afa9250505080156112d257506040513d5f823e601f3d908101601f191682016040526112cf9190810190611fe9565b60015b15610bf757806040516020016112e8919061206f565b60408051601f198184030181528282525f8881526003602052919091209091611312908790611cf3565b9081526020016040518091039020908161132c91906119ea565b5060408051808201909152806005610b7f565b60408051602081018390520160408051601f198184030181528282525f8881526003602052919091209091611375908790611cf3565b9081526020016040518091039020908161138f91906119ea565b5060408051808201909152806005610c5c565b60078260078111156113b6576113b661190c565b036115705760405163d77bfdb960e01b81525f516020615ce85f395f51905f529063d77bfdb9906113ed9089908990600401611c69565b5f60405180830381865afa92505050801561142957506040513d5f823e601f3d908101601f191682016040526114269190810190611ae4565b60015b6115085760405163b197c24760e01b81525f516020615ce85f395f51905f529063b197c2479061145f9089908990600401611c69565b5f60405180830381865afa92505050801561149b57506040513d5f823e601f3d908101601f1916820160405261149891908101906120a6565b60015b15610bf757806040516020016114b1919061214a565b60408051601f198184030181528282525f88815260036020529190912090916114db908790611cf3565b908152602001604051809103902090816114f591906119ea565b5060408051808201909152806007610b7f565b806040516020016115199190611ad2565b60408051601f198184030181528282525f8881526003602052919091209091611543908790611cf3565b9081526020016040518091039020908161155d91906119ea565b5060408051808201909152806007610c5c565b60068260078111156115845761158461190c565b036117ae57604051638bb8dd4360e01b81525f516020615ce85f395f51905f5290638bb8dd43906115bb9089908990600401611c69565b5f60405180830381865afa9250505080156115f757506040513d5f823e601f3d908101601f191682016040526115f49190810190611ae4565b60015b6116d657604051639f62928160e01b81525f516020615ce85f395f51905f5290639f6292819061162d9089908990600401611c69565b5f60405180830381865afa92505050801561166957506040513d5f823e601f3d908101601f191682016040526116669190810190611b74565b60015b15610bf7578060405160200161167f91906121ad565b60408051601f198184030181528282525f88815260036020529190912090916116a9908790611cf3565b908152602001604051809103902090816116c391906119ea565b5060408051808201909152806006610b7f565b806040516020016116e79190611ad2565b60408051601f198184030181528282525f8881526003602052919091209091611711908790611cf3565b9081526020016040518091039020908161172b91906119ea565b50604080518082018252600681525f602080830182905288825260049052829020915190919061175c908790611cf3565b90815260405190819003602001902081518154829060ff191660018360078111156117895761178961190c565b02179055506020919091015181549015156101000261ff001990911617905550600190505b806117ce578260405163ea00fa1360e01b81526004016107179190611ad2565b505050505050565b634e487b7160e01b5f52604160045260245ffd5b604051608081016001600160401b038111828210171561180c5761180c6117d6565b60405290565b604051601f8201601f191681016001600160401b038111828210171561183a5761183a6117d6565b604052919050565b5f82601f830112611851575f5ffd5b8151602083015f806001600160401b03841115611870576118706117d6565b50601f8301601f191660200161188581611812565b915050828152858383011115611899575f5ffd5b8282602083015e5f92810160200192909252509392505050565b80518015158114610861575f5ffd5b5f5f604083850312156118d3575f5ffd5b82516001600160401b038111156118e8575f5ffd5b6118f485828601611842565b925050611903602084016118b3565b90509250929050565b634e487b7160e01b5f52602160045260245ffd5b602081016009831061194057634e487b7160e01b5f52602160045260245ffd5b91905290565b5f60208284031215611956575f5ffd5b61195f826118b3565b9392505050565b600181811c9082168061197a57607f821691505b60208210810361199857634e487b7160e01b5f52602260045260245ffd5b50919050565b601f8211156119e557805f5260205f20601f840160051c810160208510156119c35750805b601f840160051c820191505b818110156119e2575f81556001016119cf565b50505b505050565b81516001600160401b03811115611a0357611a036117d6565b611a1781611a118454611966565b8461199e565b6020601f821160018114611a49575f8315611a325750848201515b5f19600385901b1c1916600184901b1784556119e2565b5f84815260208120601f198516915b82811015611a785787850151825560209485019460019092019101611a58565b5084821015611a9557868401515f19600387901b60f8161c191681555b50505050600190811b01905550565b5f81518084528060208401602086015e5f602082860101526020601f19601f83011685010191505092915050565b602081525f61195f6020830184611aa4565b5f60208284031215611af4575f5ffd5b81516001600160401b03811115611b09575f5ffd5b611b1584828501611842565b949350505050565b604081525f611b2f6040830184611aa4565b828103602084015260018152600960fa1b60208201526040810191505092915050565b5f6001600160401b03821115611b6a57611b6a6117d6565b5060051b60200190565b5f60208284031215611b84575f5ffd5b81516001600160401b03811115611b99575f5ffd5b8201601f81018413611ba9575f5ffd5b8051611bbc611bb782611b52565b611812565b8082825260208201915060208360051b850101925086831115611bdd575f5ffd5b602084015b83811015611c1d5780516001600160401b03811115611bff575f5ffd5b611c0e89602083890101611842565b84525060209283019201611be2565b509695505050505050565b634e487b7160e01b5f52603260045260245ffd5b5f81518060208401855e5f93019283525090919050565b61121760f11b81525f61195f6002830184611c3c565b604081525f611c7b6040830185611aa4565b8281036020840152611c8d8185611aa4565b95945050505050565b61121760f11b81525f611cac6002830184611c3c565b6c0b995b991c1bda5b9d17dd5c9b609a1b8152600d019392505050565b61121760f11b81525f611cdf6002830185611c3c565b601760f91b8152611c8d6001820185611c3c565b5f61195f8284611c3c565b5f611cdf8285611c3c565b5f60ff821660ff8103611d2a57634e487b7160e01b5f52601160045260245ffd5b60010192915050565b5f60208284031215611d43575f5ffd5b5051919050565b5f60208284031215611d5a575f5ffd5b81516001600160401b03811115611d6f575f5ffd5b820160808185031215611d80575f5ffd5b611d886117ea565b81516001600160401b03811115611d9d575f5ffd5b611da986828501611842565b8252506020828101519082015260408201516001600160401b03811115611dce575f5ffd5b611dda86828501611842565b60408301525060608201516001600160401b03811115611df8575f5ffd5b611e0486828501611842565b606083015250949350505050565b5f60208284031215611e22575f5ffd5b81516001600160401b03811115611e37575f5ffd5b8201601f81018413611e47575f5ffd5b8051611e55611bb782611b52565b8082825260208201915060208360051b850101925086831115611e76575f5ffd5b6020840193505b82841015611e9f57611e8e846118b3565b825260209384019390910190611e7d565b9695505050505050565b602080825282518282018190525f918401906040840190835b81811015611ee25783511515835260209384019390920191600101611ec2565b509095945050505050565b80516001600160a01b0381168114610861575f5ffd5b5f60208284031215611f13575f5ffd5b61195f82611eed565b5f60208284031215611f2c575f5ffd5b81516001600160401b03811115611f41575f5ffd5b8201601f81018413611f51575f5ffd5b8051611f5f611bb782611b52565b8082825260208201915060208360051b850101925086831115611f80575f5ffd5b6020840193505b82841015611e9f57611f9884611eed565b825260209384019390910190611f87565b602080825282518282018190525f918401906040840190835b81811015611ee25783516001600160a01b0316835260209384019390920191600101611fc2565b5f60208284031215611ff9575f5ffd5b81516001600160401b0381111561200e575f5ffd5b8201601f8101841361201e575f5ffd5b805161202c611bb782611b52565b8082825260208201915060208360051b85010192508683111561204d575f5ffd5b6020840193505b82841015611e9f578351825260209384019390910190612054565b602080825282518282018190525f918401906040840190835b81811015611ee2578351835260209384019390920191600101612088565b5f602082840312156120b6575f5ffd5b81516001600160401b038111156120cb575f5ffd5b8201601f810184136120db575f5ffd5b80516120e9611bb782611b52565b8082825260208201915060208360051b85010192508683111561210a575f5ffd5b602084015b83811015611c1d5780516001600160401b0381111561212c575f5ffd5b61213b89602083890101611842565b8452506020928301920161210f565b5f602082016020835280845180835260408501915060408160051b8601019250602086015f5b828110156121a157603f1987860301845261218c858351611aa4565b94506020938401939190910190600101612170565b50929695505050505050565b5f602082016020835280845180835260408501915060408160051b8601019250602086015f5b828110156121a157603f198786030184526121ef858351611aa4565b945060209384019391909101906001016121d3565b613ad7806122115f395ff3fe608060405234801561000f575f5ffd5b50600436106101b5575f3560e01c806307d79d9a146101b957806308f7b4b2146101ce5780631d776323146101e157806322dc48fd146101ff578063261a323e146102125780632b29c0fa146102355780632e3196a5146102485780632ef8ba741461025b5780633f3a75881461026e57806343d9eb7b1461028f57806343ec8b6a146102a25780634d85ce80146102b757806359b39526146102ca5780635eba0df0146102dd57806361141c97146102f05780636556095014610303578063693ec85e146103165780637b8fed81146103365780637df3ef1214610349578063805da4ad1461035c57806388c63d451461036f5780638a42ebe9146103825780638be199241461039557806393dbe6e0146103a8578063a815ff15146103bb578063b3a64001146103ce578063ba0ff22c146103e1578063c91ca7ba146103f4578063cf1cfa9914610407578063cf72a2f31461041a578063d6698dc41461042d578063db0075df14610440578063de0fc9b314610453578063e298d00b14610466578063e605325014610479578063e942b5161461048c578063fa3c074a1461049f575b5f5ffd5b6101cc6101c7366004612b61565b6104b2565b005b6101cc6101dc366004612c34565b6105c9565b6101e96107bc565b6040516101f69190612c9f565b60405180910390f35b6101cc61020d366004612b61565b61092d565b610225610220366004612ce1565b6109f7565b60405190151581526020016101f6565b6101cc610243366004612d1a565b610a76565b6101cc610256366004612d7d565b610af3565b6101cc610269366004612d7d565b610b6c565b61028161027c366004612ce1565b610be5565b6040519081526020016101f6565b61022561029d366004612dbe565b610cf7565b6102aa610d39565b6040516101f69190612e19565b6101cc6102c5366004612e2b565b610e46565b6101cc6102d8366004612f0a565b610f18565b6101cc6102eb366004612f79565b610f91565b6101cc6102fe36600461302d565b611063565b6101cc610311366004612e2b565b6111c1565b610329610324366004612ce1565b611267565b6040516101f691906130a2565b6101cc6103443660046130e7565b6112e7565b6102aa610357366004613140565b611360565b61032961036a366004612dbe565b6113ff565b6101cc61037d366004613157565b611547565b6101cc610390366004612d7d565b6115c0565b6101cc6103a3366004612c34565b611639565b6101cc6103b63660046131b0565b6117d7565b6101cc6103c9366004613211565b611935565b6101cc6103dc36600461326b565b6119ae565b6101cc6103ef3660046132c1565b611a7a565b6101cc610402366004612f0a565b611af3565b6101cc610415366004612b61565b611b6c565b6101cc6104283660046131b0565b611c3a565b6101cc61043b36600461330f565b611d63565b6101cc61044e366004612c34565b611e0d565b6101cc6104613660046130e7565b611fab565b6101cc61047436600461338e565b612024565b6101cc6104873660046130e7565b6121c3565b6101cc61049a366004612d1a565b61223c565b6101cc6104ad3660046133ef565b6122b5565b60408051808201909152600581525f60208201526104d184848361232e565b60408051602081018490520160408051601f198184030181528282525f878152600360205291909120909161050790869061345f565b9081526020016040518091039020908161052191906134e5565b5060055460ff16156105c3576105c38461054e835f015160078111156105495761054961308e565b612432565b604051635191620760e11b81526004810186905286905f516020613a625f395f51905f529063a322c40e906024015b5f60405180830381865afa158015610597573d5f5f3e3d5ffd5b505050506040513d5f823e601f3d908101601f191682016040526105be91908101906135ec565b6125eb565b50505050565b6040805180820190915260038152600160208201526105e984848361232e565b816040516020016105fa9190612c9f565b60408051601f198184030181528282525f878152600360205291909120909161062490869061345f565b9081526020016040518091039020908161063e91906134e5565b5060055460ff16156105c3576040805180820190915260018152605b60f81b60208201525f5b835181101561076f578161070d5f516020613a825f395f51905f525f1c6001600160a01b031663b11a19e88785815181106106a1576106a161361d565b60200260200101516040518263ffffffff1660e01b81526004016106c791815260200190565b5f60405180830381865afa1580156106e1573d5f5f3e3d5ffd5b505050506040513d5f823e601f3d908101601f1916820160405261070891908101906135ec565b612686565b60405160200161071e929190613631565b60405160208183030381529060405291506001845161073d9190613645565b81101561076757816040516020016107559190613664565b60405160208183030381529060405291505b600101610664565b50806040516020016107819190613680565b60405160208183030381529060405290506107b5856107ae845f015160078111156105495761054961308e565b86846125eb565b5050505050565b60605f6001805480602002602001604051908101604052809291908181526020015f905b82821015610888578382905f5260205f200180546107fd9061346a565b80601f01602080910402602001604051908101604052809291908181526020018280546108299061346a565b80156108745780601f1061084b57610100808354040283529160200191610874565b820191905f5260205f20905b81548152906001019060200180831161085757829003601f168201915b5050505050815260200190600101906107e0565b5050505090505f81516001600160401b038111156108a8576108a8612a7b565b6040519080825280602002602001820160405280156108d1578160200160208202803683370190505b5090505f5b8251811015610926576109018382815181106108f4576108f461361d565b6020026020010151610be5565b8282815181106109135761091361361d565b60209081029190910101526001016108d6565b5092915050565b60408051808201909152600481525f602082015261094c84848361232e565b60408051602081018490520160408051601f198184030181528282525f878152600360205291909120909161098290869061345f565b9081526020016040518091039020908161099c91906134e5565b5060055460ff16156105c3576105c3846109c4835f015160078111156105495761054961308e565b60405163348051d760e11b81526004810186905286905f516020613a625f395f51905f5290636900a3ae9060240161057d565b5f610a705f516020613a825f395f51905f525f1c6001600160a01b0316633408e4706040518163ffffffff1660e01b8152600401602060405180830381865afa158015610a46573d5f5f3e3d5ffd5b505050506040513d601f19601f82011682018060405250810190610a6a919061369c565b83610cf7565b92915050565b610aef5f516020613a825f395f51905f525f1c6001600160a01b0316633408e4706040518163ffffffff1660e01b8152600401602060405180830381865afa158015610ac4573d5f5f3e3d5ffd5b505050506040513d601f19601f82011682018060405250810190610ae8919061369c565b8383610e46565b5050565b610aef5f516020613a825f395f51905f525f1c6001600160a01b0316633408e4706040518163ffffffff1660e01b8152600401602060405180830381865afa158015610b41573d5f5f3e3d5ffd5b505050506040513d601f19601f82011682018060405250810190610b65919061369c565b8383611b6c565b610aef5f516020613a825f395f51905f525f1c6001600160a01b0316633408e4706040518163ffffffff1660e01b8152600401602060405180830381865afa158015610bba573d5f5f3e3d5ffd5b505050506040513d601f19601f82011682018060405250810190610bde919061369c565b83836104b2565b60405163fa91454d60e01b81525f905f516020613a625f395f51905f529063fa91454d90610c17908590600401612e19565b602060405180830381865afa925050508015610c50575060408051601f3d908101601f19168201909252610c4d9181019061369c565b60015b610a7057604051634cc1c2bb60e01b81525f516020613a625f395f51905f5290634cc1c2bb90610c84908590600401612e19565b5f60405180830381865afa925050508015610cc057506040513d5f823e601f3d908101601f19168201604052610cbd91908101906136b3565b60015b610ce857816040516397aa94df60e01b8152600401610cdf9190612e19565b60405180910390fd5b6020015192915050565b919050565b5f828152600360205260408082209051829190610d1590859061345f565b90815260200160405180910390208054610d2e9061346a565b905011905092915050565b606060025f5f516020613a825f395f51905f525f1c6001600160a01b0316633408e4706040518163ffffffff1660e01b8152600401602060405180830381865afa158015610d89573d5f5f3e3d5ffd5b505050506040513d601f19601f82011682018060405250810190610dad919061369c565b81526020019081526020015f208054610dc59061346a565b80601f0160208091040260200160405190810160405280929190818152602001828054610df19061346a565b8015610e3c5780601f10610e1357610100808354040283529160200191610e3c565b820191905f5260205f20905b815481529060010190602001808311610e1f57829003601f168201915b5050505050905090565b60408051808201909152600781525f6020820152610e6584848361232e565b81604051602001610e769190612e19565b60408051601f198184030181528282525f8781526003602052919091209091610ea090869061345f565b90815260200160405180910390209081610eba91906134e5565b5060055460ff16156105c3576105c384610ee2835f015160078111156105495761054961308e565b6040516371aad10d60e01b815286906105be905f516020613a625f395f51905f52906371aad10d906106c7908a90600401612e19565b610aef5f516020613a825f395f51905f525f1c6001600160a01b0316633408e4706040518163ffffffff1660e01b8152600401602060405180830381865afa158015610f66573d5f5f3e3d5ffd5b505050506040513d601f19601f82011682018060405250810190610f8a919061369c565b8383611c3a565b60408051808201909152600281525f6020820152610fb084848361232e565b81604051602001610fc1919061377b565b60408051601f198184030181528282525f8781526003602052919091209091610feb90869061345f565b9081526020016040518091039020908161100591906134e5565b5060055460ff16156105c3576105c38461102d835f015160078111156105495761054961308e565b604051632b65311f60e11b815286906105be905f516020613a625f395f51905f52906356ca623e906106c7908a9060040161377b565b60408051808201909152600281526001602082015261108384848361232e565b81604051602001611094919061378f565b60408051601f198184030181528282525f87815260036020529190912090916110be90869061345f565b908152602001604051809103902090816110d891906134e5565b5060055460ff16156105c3576040805180820190915260018152605b60f81b60208201525f5b835181101561076f578161115f5f516020613a825f395f51905f525f1c6001600160a01b03166356ca623e87858151811061113b5761113b61361d565b60200260200101516040518263ffffffff1660e01b81526004016106c7919061377b565b604051602001611170929190613631565b60405160208183030381529060405291506001845161118f9190613645565b8110156111b957816040516020016111a79190613664565b60405160208183030381529060405291505b6001016110fe565b60408051808201909152600681525f60208201526111e084848361232e565b816040516020016111f19190612e19565b60408051601f198184030181528282525f878152600360205291909120909161121b90869061345f565b9081526020016040518091039020908161123591906134e5565b5060055460ff16156105c3576105c38461125d835f015160078111156105495761054961308e565b856105be86612686565b61126f612a54565b610a705f516020613a825f395f51905f525f1c6001600160a01b0316633408e4706040518163ffffffff1660e01b8152600401602060405180830381865afa1580156112bd573d5f5f3e3d5ffd5b505050506040513d601f19601f820116820180604052508101906112e1919061369c565b836113ff565b610aef5f516020613a825f395f51905f525f1c6001600160a01b0316633408e4706040518163ffffffff1660e01b8152600401602060405180830381865afa158015611335573d5f5f3e3d5ffd5b505050506040513d601f19601f82011682018060405250810190611359919061369c565b8383611e0d565b5f81815260026020526040902080546060919061137c9061346a565b80601f01602080910402602001604051908101604052809291908181526020018280546113a89061346a565b80156113f35780601f106113ca576101008083540402835291602001916113f3565b820191905f5260205f20905b8154815290600101906020018083116113d657829003601f168201915b50505050509050919050565b611407612a54565b604051806040016040528060045f8681526020019081526020015f2084604051611431919061345f565b908152604080519182900360200182208282019091528054829060ff16600781111561145f5761145f61308e565b60078111156114705761147061308e565b81529054610100900460ff1615156020918201529082525f86815260038252604090819020905192909101916114a790869061345f565b908152602001604051809103902080546114c09061346a565b80601f01602080910402602001604051908101604052809291908181526020018280546114ec9061346a565b80156115375780601f1061150e57610100808354040283529160200191611537565b820191905f5260205f20905b81548152906001019060200180831161151a57829003601f168201915b5050505050815250905092915050565b610aef5f516020613a825f395f51905f525f1c6001600160a01b0316633408e4706040518163ffffffff1660e01b8152600401602060405180830381865afa158015611595573d5f5f3e3d5ffd5b505050506040513d601f19601f820116820180604052508101906115b9919061369c565b8383611063565b610aef5f516020613a825f395f51905f525f1c6001600160a01b0316633408e4706040518163ffffffff1660e01b8152600401602060405180830381865afa15801561160e573d5f5f3e3d5ffd5b505050506040513d601f19601f82011682018060405250810190611632919061369c565b838361092d565b60408051808201909152600581526001602082015261165984848361232e565b8160405160200161166a9190612c9f565b60408051601f198184030181528282525f878152600360205291909120909161169490869061345f565b908152602001604051809103902090816116ae91906134e5565b5060055460ff16156105c3576040805180820190915260018152605b60f81b60208201525f5b835181101561076f57815f516020613a825f395f51905f525f1c6001600160a01b031663a322c40e86848151811061170e5761170e61361d565b60200260200101516040518263ffffffff1660e01b815260040161173491815260200190565b5f60405180830381865afa15801561174e573d5f5f3e3d5ffd5b505050506040513d5f823e601f3d908101601f1916820160405261177591908101906135ec565b604051602001611786929190613631565b6040516020818303038152906040529150600184516117a59190613645565b8110156117cf57816040516020016117bd9190613664565b60405160208183030381529060405291505b6001016116d4565b6040805180820190915260078152600160208201526117f784848361232e565b8160405160200161180891906137cf565b60408051601f198184030181528282525f878152600360205291909120909161183290869061345f565b9081526020016040518091039020908161184c91906134e5565b5060055460ff16156105c3576040805180820190915260018152605b60f81b60208201525f5b835181101561076f57816118d35f516020613a825f395f51905f525f1c6001600160a01b03166371aad10d8785815181106118af576118af61361d565b60200260200101516040518263ffffffff1660e01b81526004016106c79190612e19565b6040516020016118e4929190613631565b6040516020818303038152906040529150600184516119039190613645565b81101561192d578160405160200161191b9190613664565b60405160208183030381529060405291505b600101611872565b610aef5f516020613a825f395f51905f525f1c6001600160a01b0316633408e4706040518163ffffffff1660e01b8152600401602060405180830381865afa158015611983573d5f5f3e3d5ffd5b505050506040513d601f19601f820116820180604052508101906119a7919061369c565b8383610f91565b60408051808201909152600181525f60208201526119cd84848361232e565b6040805183151560208201520160408051601f198184030181528282525f8781526003602052919091209091611a0490869061345f565b90815260200160405180910390209081611a1e91906134e5565b5060055460ff16156105c3576105c384611a46835f015160078111156105495761054961308e565b6040516338ee73ed60e11b8152851515600482015286905f516020613a625f395f51905f52906371dce7da9060240161057d565b610aef5f516020613a825f395f51905f525f1c6001600160a01b0316633408e4706040518163ffffffff1660e01b8152600401602060405180830381865afa158015611ac8573d5f5f3e3d5ffd5b505050506040513d601f19601f82011682018060405250810190611aec919061369c565b83836119ae565b610aef5f516020613a825f395f51905f525f1c6001600160a01b0316633408e4706040518163ffffffff1660e01b8152600401602060405180830381865afa158015611b41573d5f5f3e3d5ffd5b505050506040513d601f19601f82011682018060405250810190611b65919061369c565b83836117d7565b60408051808201909152600381525f6020820152611b8b84848361232e565b60408051602081018490520160408051601f198184030181528282525f8781526003602052919091209091611bc190869061345f565b90815260200160405180910390209081611bdb91906134e5565b5060055460ff16156105c3576105c384611c03835f015160078111156105495761054961308e565b604051631623433d60e31b81526004810186905286906105be905f516020613a625f395f51905f529063b11a19e8906024016106c7565b604080518082019091526006815260016020820152611c5a84848361232e565b81604051602001611c6b9190613832565b60408051601f198184030181528282525f8781526003602052919091209091611c9590869061345f565b90815260200160405180910390209081611caf91906134e5565b5060055460ff16156105c3576040805180820190915260018152605b60f81b60208201525f5b835181101561076f5781611d01858381518110611cf457611cf461361d565b6020026020010151612686565b604051602001611d12929190613631565b604051602081830303815290604052915060018451611d319190613645565b811015611d5b5781604051602001611d499190613664565b60405160208183030381529060405291505b600101611cd5565b808015611ddc57506040516364af255d60e01b81525f516020613a625f395f51905f52906364af255d90611d9b906004908101613889565b602060405180830381865afa158015611db6573d5f5f3e3d5ffd5b505050506040513d601f19601f82011682018060405250810190611dda91906138a3565b155b15611dfa576040516305d79a4360e31b815260040160405180910390fd5b6005805460ff1916911515919091179055565b604080518082019091526004815260016020820152611e2d84848361232e565b81604051602001611e3e9190612c9f565b60408051601f198184030181528282525f8781526003602052919091209091611e6890869061345f565b90815260200160405180910390209081611e8291906134e5565b5060055460ff16156105c3576040805180820190915260018152605b60f81b60208201525f5b835181101561076f57815f516020613a825f395f51905f525f1c6001600160a01b0316636900a3ae868481518110611ee257611ee261361d565b60200260200101516040518263ffffffff1660e01b8152600401611f0891815260200190565b5f60405180830381865afa158015611f22573d5f5f3e3d5ffd5b505050506040513d5f823e601f3d908101601f19168201604052611f4991908101906135ec565b604051602001611f5a929190613631565b604051602081830303815290604052915060018451611f799190613645565b811015611fa35781604051602001611f919190613664565b60405160208183030381529060405291505b600101611ea8565b610aef5f516020613a825f395f51905f525f1c6001600160a01b0316633408e4706040518163ffffffff1660e01b8152600401602060405180830381865afa158015611ff9573d5f5f3e3d5ffd5b505050506040513d601f19601f8201168201806040525081019061201d919061369c565b8383611639565b604080518082019091526001808252602082015261204384848361232e565b8160405160200161205491906138be565b60408051601f198184030181528282525f878152600360205291909120909161207e90869061345f565b9081526020016040518091039020908161209891906134e5565b5060055460ff16156105c3576040805180820190915260018152605b60f81b60208201525f5b835181101561076f57815f516020613a825f395f51905f525f1c6001600160a01b03166371dce7da8684815181106120f8576120f861361d565b60200260200101516040518263ffffffff1660e01b8152600401612120911515815260200190565b5f60405180830381865afa15801561213a573d5f5f3e3d5ffd5b505050506040513d5f823e601f3d908101601f1916820160405261216191908101906135ec565b604051602001612172929190613631565b6040516020818303038152906040529150600184516121919190613645565b8110156121bb57816040516020016121a99190613664565b60405160208183030381529060405291505b6001016120be565b610aef5f516020613a825f395f51905f525f1c6001600160a01b0316633408e4706040518163ffffffff1660e01b8152600401602060405180830381865afa158015612211573d5f5f3e3d5ffd5b505050506040513d601f19601f82011682018060405250810190612235919061369c565b83836105c9565b610aef5f516020613a825f395f51905f525f1c6001600160a01b0316633408e4706040518163ffffffff1660e01b8152600401602060405180830381865afa15801561228a573d5f5f3e3d5ffd5b505050506040513d601f19601f820116820180604052508101906122ae919061369c565b83836111c1565b610aef5f516020613a825f395f51905f525f1c6001600160a01b0316633408e4706040518163ffffffff1660e01b8152600401602060405180830381865afa158015612303573d5f5f3e3d5ffd5b505050506040513d601f19601f82011682018060405250810190612327919061369c565b8383612024565b5f83815260046020526040808220905161234990859061345f565b908152604080519182900360200182208282019091528054829060ff1660078111156123775761237761308e565b60078111156123885761238861308e565b81529054610100900460ff16151560209091015290505f815160078111156123b2576123b261308e565b03612428578160045f8681526020019081526020015f20846040516123d7919061345f565b90815260405190819003602001902081518154829060ff191660018360078111156124045761240461308e565b02179055506020919091015181549015156101000261ff00199091161790556105c3565b6105c381836126af565b606060018260078111156124485761244861308e565b0361246d575050604080518082019091526004815263189bdbdb60e21b602082015290565b60028260078111156124815761248161308e565b036124a95750506040805180820190915260078152666164647265737360c81b602082015290565b60038260078111156124bd576124bd61308e565b036124e5575050604080518082019091526007815266313cba32b9999960c91b602082015290565b60048260078111156124f9576124f961308e565b0361251e5750506040805180820190915260048152631d5a5b9d60e21b602082015290565b60058260078111156125325761253261308e565b036125565750506040805180820190915260038152621a5b9d60ea1b602082015290565b600682600781111561256a5761256a61308e565b03612591575050604080518082019091526006815265737472696e6760d01b602082015290565b60078260078111156125a5576125a561308e565b036125cb575050604080518082019091526005815264627974657360d81b602082015290565b50506040805180820190915260048152636e6f6e6560e01b602082015290565b5f6125f5856126ea565b90505f81858560405160200161260d939291906138f7565b60408051601f19818403018152908290526351ac6a3360e01b825291505f516020613a625f395f51905f52906351ac6a33906126519086905f908690600401613941565b5f604051808303815f87803b158015612668575f5ffd5b505af115801561267a573d5f5f3e3d5ffd5b50505050505050505050565b60608160405160200161269991906139f1565b6040516020818303038152906040529050919050565b6126b98282612877565b610aef576126c6816128be565b6126cf836128be565b60405163b02cf71d60e01b8152600401610cdf929190613a17565b60605f5b60015481101561285a57826127a36001838154811061270f5761270f61361d565b905f5260205f200180546127229061346a565b80601f016020809104026020016040519081016040528092919081815260200182805461274e9061346a565b80156127995780601f1061277057610100808354040283529160200191612799565b820191905f5260205f20905b81548152906001019060200180831161277c57829003601f168201915b5050505050610be5565b0361285257600181815481106127bb576127bb61361d565b905f5260205f200180546127ce9061346a565b80601f01602080910402602001604051908101604052809291908181526020018280546127fa9061346a565b80156128455780601f1061281c57610100808354040283529160200191612845565b820191905f5260205f20905b81548152906001019060200180831161282857829003601f168201915b5050505050915050919050565b6001016126ee565b50604051631ff94f8360e11b815260048101839052602401610cdf565b80515f90600781111561288c5761288c61308e565b8351600781111561289f5761289f61308e565b1480156128b757508160200151151583602001511515145b9392505050565b60605f6128cd835f015161292a565b9050826020015115806128f157505f835160078111156128ef576128ef61308e565b145b156128fc5792915050565b8060405160200161290d9190613a44565b604051602081830303815290604052915050919050565b50919050565b606060018260078111156129405761294061308e565b03612965575050604080518082019091526004815263189bdbdb60e21b602082015290565b60028260078111156129795761297961308e565b036129a15750506040805180820190915260078152666164647265737360c81b602082015290565b60038260078111156129b5576129b561308e565b036129dd575050604080518082019091526007815266313cba32b9999960c91b602082015290565b60048260078111156129f1576129f161308e565b03612a195750506040805180820190915260078152663ab4b73a191a9b60c91b602082015290565b6005826007811115612a2d57612a2d61308e565b0361255657505060408051808201909152600681526534b73a191a9b60d11b602082015290565b604080516080810182525f9181018281526060808301939093528152602081019190915290565b634e487b7160e01b5f52604160045260245ffd5b604051608081016001600160401b0381118282101715612ab157612ab1612a7b565b60405290565b604051601f8201601f191681016001600160401b0381118282101715612adf57612adf612a7b565b604052919050565b5f6001600160401b03821115612aff57612aff612a7b565b50601f01601f191660200190565b5f82601f830112612b1c575f5ffd5b8135602083015f612b34612b2f84612ae7565b612ab7565b9050828152858383011115612b47575f5ffd5b828260208301375f92810160200192909252509392505050565b5f5f5f60608486031215612b73575f5ffd5b8335925060208401356001600160401b03811115612b8f575f5ffd5b612b9b86828701612b0d565b93969395505050506040919091013590565b5f6001600160401b03821115612bc557612bc5612a7b565b5060051b60200190565b5f82601f830112612bde575f5ffd5b8135612bec612b2f82612bad565b8082825260208201915060208360051b860101925085831115612c0d575f5ffd5b602085015b83811015612c2a578035835260209283019201612c12565b5095945050505050565b5f5f5f60608486031215612c46575f5ffd5b8335925060208401356001600160401b03811115612c62575f5ffd5b612c6e86828701612b0d565b92505060408401356001600160401b03811115612c89575f5ffd5b612c9586828701612bcf565b9150509250925092565b602080825282518282018190525f918401906040840190835b81811015612cd6578351835260209384019390920191600101612cb8565b509095945050505050565b5f60208284031215612cf1575f5ffd5b81356001600160401b03811115612d06575f5ffd5b612d1284828501612b0d565b949350505050565b5f5f60408385031215612d2b575f5ffd5b82356001600160401b03811115612d40575f5ffd5b612d4c85828601612b0d565b92505060208301356001600160401b03811115612d67575f5ffd5b612d7385828601612b0d565b9150509250929050565b5f5f60408385031215612d8e575f5ffd5b82356001600160401b03811115612da3575f5ffd5b612daf85828601612b0d565b95602094909401359450505050565b5f5f60408385031215612dcf575f5ffd5b8235915060208301356001600160401b03811115612d67575f5ffd5b5f81518084528060208401602086015e5f602082860101526020601f19601f83011685010191505092915050565b602081525f6128b76020830184612deb565b5f5f5f60608486031215612e3d575f5ffd5b8335925060208401356001600160401b03811115612e59575f5ffd5b612e6586828701612b0d565b92505060408401356001600160401b03811115612e80575f5ffd5b612c9586828701612b0d565b5f82601f830112612e9b575f5ffd5b8135612ea9612b2f82612bad565b8082825260208201915060208360051b860101925085831115612eca575f5ffd5b602085015b83811015612c2a5780356001600160401b03811115612eec575f5ffd5b612efb886020838a0101612b0d565b84525060209283019201612ecf565b5f5f60408385031215612f1b575f5ffd5b82356001600160401b03811115612f30575f5ffd5b612f3c85828601612b0d565b92505060208301356001600160401b03811115612f57575f5ffd5b612d7385828601612e8c565b80356001600160a01b0381168114610cf2575f5ffd5b5f5f5f60608486031215612f8b575f5ffd5b8335925060208401356001600160401b03811115612fa7575f5ffd5b612fb386828701612b0d565b925050612fc260408501612f63565b90509250925092565b5f82601f830112612fda575f5ffd5b8135612fe8612b2f82612bad565b8082825260208201915060208360051b860101925085831115613009575f5ffd5b602085015b83811015612c2a5761301f81612f63565b83526020928301920161300e565b5f5f5f6060848603121561303f575f5ffd5b8335925060208401356001600160401b0381111561305b575f5ffd5b61306786828701612b0d565b92505060408401356001600160401b03811115613082575f5ffd5b612c9586828701612fcb565b634e487b7160e01b5f52602160045260245ffd5b602081525f82518051600881106130bb576130bb61308e565b80602085015250602081015115156040840152506020830151606080840152612d126080840182612deb565b5f5f604083850312156130f8575f5ffd5b82356001600160401b0381111561310d575f5ffd5b61311985828601612b0d565b92505060208301356001600160401b03811115613134575f5ffd5b612d7385828601612bcf565b5f60208284031215613150575f5ffd5b5035919050565b5f5f60408385031215613168575f5ffd5b82356001600160401b0381111561317d575f5ffd5b61318985828601612b0d565b92505060208301356001600160401b038111156131a4575f5ffd5b612d7385828601612fcb565b5f5f5f606084860312156131c2575f5ffd5b8335925060208401356001600160401b038111156131de575f5ffd5b6131ea86828701612b0d565b92505060408401356001600160401b03811115613205575f5ffd5b612c9586828701612e8c565b5f5f60408385031215613222575f5ffd5b82356001600160401b03811115613237575f5ffd5b61324385828601612b0d565b92505061325260208401612f63565b90509250929050565b8015158114613268575f5ffd5b50565b5f5f5f6060848603121561327d575f5ffd5b8335925060208401356001600160401b03811115613299575f5ffd5b6132a586828701612b0d565b92505060408401356132b68161325b565b809150509250925092565b5f5f604083850312156132d2575f5ffd5b82356001600160401b038111156132e7575f5ffd5b6132f385828601612b0d565b92505060208301356133048161325b565b809150509250929050565b5f6020828403121561331f575f5ffd5b81356128b78161325b565b5f82601f830112613339575f5ffd5b8135613347612b2f82612bad565b8082825260208201915060208360051b860101925085831115613368575f5ffd5b602085015b83811015612c2a5780356133808161325b565b83526020928301920161336d565b5f5f5f606084860312156133a0575f5ffd5b8335925060208401356001600160401b038111156133bc575f5ffd5b6133c886828701612b0d565b92505060408401356001600160401b038111156133e3575f5ffd5b612c958682870161332a565b5f5f60408385031215613400575f5ffd5b82356001600160401b03811115613415575f5ffd5b61342185828601612b0d565b92505060208301356001600160401b0381111561343c575f5ffd5b612d738582860161332a565b5f81518060208401855e5f93019283525090919050565b5f6128b78284613448565b600181811c9082168061347e57607f821691505b60208210810361292457634e487b7160e01b5f52602260045260245ffd5b601f8211156134e057805f5260205f20601f840160051c810160208510156134c15750805b601f840160051c820191505b818110156107b5575f81556001016134cd565b505050565b81516001600160401b038111156134fe576134fe612a7b565b6135128161350c845461346a565b8461349c565b6020601f821160018114613544575f831561352d5750848201515b5f19600385901b1c1916600184901b1784556107b5565b5f84815260208120601f198516915b828110156135735787850151825560209485019460019092019101613553565b508482101561359057868401515f19600387901b60f8161c191681555b50505050600190811b01905550565b5f82601f8301126135ae575f5ffd5b81516135bc612b2f82612ae7565b8181528460208386010111156135d0575f5ffd5b8160208501602083015e5f918101602001919091529392505050565b5f602082840312156135fc575f5ffd5b81516001600160401b03811115613611575f5ffd5b612d128482850161359f565b634e487b7160e01b5f52603260045260245ffd5b5f612d1261363f8386613448565b84613448565b81810381811115610a7057634e487b7160e01b5f52601160045260245ffd5b5f61366f8284613448565b600b60fa1b81526001019392505050565b5f61368b8284613448565b605d60f81b81526001019392505050565b5f602082840312156136ac575f5ffd5b5051919050565b5f602082840312156136c3575f5ffd5b81516001600160401b038111156136d8575f5ffd5b8201608081850312156136e9575f5ffd5b6136f1612a8f565b81516001600160401b03811115613706575f5ffd5b6137128682850161359f565b8252506020828101519082015260408201516001600160401b03811115613737575f5ffd5b6137438682850161359f565b60408301525060608201516001600160401b03811115613761575f5ffd5b61376d8682850161359f565b606083015250949350505050565b6001600160a01b0391909116815260200190565b602080825282518282018190525f918401906040840190835b81811015612cd65783516001600160a01b03168352602093840193909201916001016137a8565b5f602082016020835280845180835260408501915060408160051b8601019250602086015f5b8281101561382657603f19878603018452613811858351612deb565b945060209384019391909101906001016137f5565b50929695505050505050565b5f602082016020835280845180835260408501915060408160051b8601019250602086015f5b8281101561382657603f19878603018452613874858351612deb565b94506020938401939190910190600101613858565b602081016009831061389d5761389d61308e565b91905290565b5f602082840312156138b3575f5ffd5b81516128b78161325b565b602080825282518282018190525f918401906040840190835b81811015612cd657835115158352602093840193909201916001016138d7565b61121760f11b81525f61390d6002830186613448565b601760f91b81526139216001820186613448565b9050601760f91b81526139376001820185613448565b9695505050505050565b606081525f6139536060830186612deb565b82810360208401525f85546139678161346a565b808452600182168015613981576001811461399d576139d1565b60ff1983166020860152602082151560051b86010193506139d1565b885f5260205f205f5b838110156139c8578154602082890101526001820191506020810190506139a6565b86016020019450505b50505083810360408501526139e68186612deb565b979650505050505050565b601160f91b81525f613a066001830184613448565b601160f91b81526001019392505050565b604081525f613a296040830185612deb565b8281036020840152613a3b8185612deb565b95945050505050565b5f613a4f8284613448565b615b5d60f01b8152600201939250505056fe0000000000000000000000007109709ecfa91a80626ff3989d68f67f5b1dd12d885cb69240a935d632d79c317109709ecfa91a80626ff3989d68f67f5b1dd12da2646970667358221220cb51b802dc42d22e1b1a8550a25ad9446ae10dda79233ac680bbfce21586293d64736f6c634300081e00330000000000000000000000007109709ecfa91a80626ff3989d68f67f5b1dd12d","linkReferences":{}},"methodIdentifiers":{"exists(string)":"261a323e","exists(uint256,string)":"43d9eb7b","get(string)":"693ec85e","get(uint256,string)":"805da4ad","getChainIds()":"1d776323","getRpcUrl()":"43ec8b6a","getRpcUrl(uint256)":"7df3ef12","resolveChainId(string)":"3f3a7588","set(string,address)":"a815ff15","set(string,address[])":"88c63d45","set(string,bool)":"ba0ff22c","set(string,bool[])":"fa3c074a","set(string,bytes)":"2b29c0fa","set(string,bytes32)":"2e3196a5","set(string,bytes32[])":"e6053250","set(string,bytes[])":"c91ca7ba","set(string,int256)":"2ef8ba74","set(string,int256[])":"de0fc9b3","set(string,string)":"e942b516","set(string,string[])":"59b39526","set(string,uint256)":"8a42ebe9","set(string,uint256[])":"7b8fed81","set(uint256,string,address)":"5eba0df0","set(uint256,string,address[])":"61141c97","set(uint256,string,bool)":"b3a64001","set(uint256,string,bool[])":"e298d00b","set(uint256,string,bytes)":"4d85ce80","set(uint256,string,bytes32)":"cf1cfa99","set(uint256,string,bytes32[])":"08f7b4b2","set(uint256,string,bytes[])":"93dbe6e0","set(uint256,string,int256)":"07d79d9a","set(uint256,string,int256[])":"8be19924","set(uint256,string,string)":"65560950","set(uint256,string,string[])":"cf72a2f3","set(uint256,string,uint256)":"22dc48fd","set(uint256,string,uint256[])":"db0075df","writeUpdatesBackToFile(bool)":"d6698dc4"},"id":9}