{"abi":[{"type":"constructor","inputs":[],"stateMutability":"nonpayable"},{"type":"function","name":"bet","inputs":[{"name":"marketId","type":"uint256","internalType":"uint256"},{"name":"position","type":"bool","internalType":"bool"}],"outputs":[],"stateMutability":"payable"},{"type":"function","name":"bets","inputs":[{"name":"","type":"uint256","internalType":"uint256"},{"name":"","type":"address","internalType":"address"}],"outputs":[{"name":"yesShares","type":"uint256","internalType":"uint256"},{"name":"noShares","type":"uint256","internalType":"uint256"},{"name":"claimed","type":"bool","internalType":"bool"}],"stateMutability":"view"},{"type":"function","name":"claim","inputs":[{"name":"marketId","type":"uint256","internalType":"uint256"}],"outputs":[],"stateMutability":"nonpayable"},{"type":"function","name":"createMarket","inputs":[{"name":"description","type":"string","internalType":"string"},{"name":"topicId","type":"string","internalType":"string"},{"name":"keyword","type":"string","internalType":"string"},{"name":"oracleType","type":"string","internalType":"string"},{"name":"oracleRepo","type":"string","internalType":"string"},{"name":"oracleCommitSHA","type":"string","internalType":"string"},{"name":"deadline","type":"uint256","internalType":"uint256"}],"outputs":[{"name":"","type":"uint256","internalType":"uint256"}],"stateMutability":"nonpayable"},{"type":"function","name":"getBet","inputs":[{"name":"marketId","type":"uint256","internalType":"uint256"},{"name":"bettor","type":"address","internalType":"address"}],"outputs":[{"name":"yesShares","type":"uint256","internalType":"uint256"},{"name":"noShares","type":"uint256","internalType":"uint256"},{"name":"claimed","type":"bool","internalType":"bool"}],"stateMutability":"view"},{"type":"function","name":"getMarket","inputs":[{"name":"marketId","type":"uint256","internalType":"uint256"}],"outputs":[{"name":"description","type":"string","internalType":"string"},{"name":"conditionHash","type":"bytes32","internalType":"bytes32"},{"name":"oracleRepo","type":"string","internalType":"string"},{"name":"oracleCommitSHA","type":"string","internalType":"string"},{"name":"deadline","type":"uint256","internalType":"uint256"},{"name":"settled","type":"bool","internalType":"bool"},{"name":"result","type":"bool","internalType":"bool"},{"name":"yesPool","type":"uint256","internalType":"uint256"},{"name":"noPool","type":"uint256","internalType":"uint256"}],"stateMutability":"view"},{"type":"function","name":"getOdds","inputs":[{"name":"marketId","type":"uint256","internalType":"uint256"}],"outputs":[{"name":"yesOdds","type":"uint256","internalType":"uint256"},{"name":"noOdds","type":"uint256","internalType":"uint256"}],"stateMutability":"view"},{"type":"function","name":"getPotentialPayout","inputs":[{"name":"marketId","type":"uint256","internalType":"uint256"},{"name":"bettor","type":"address","internalType":"address"}],"outputs":[{"name":"ifYesWins","type":"uint256","internalType":"uint256"},{"name":"ifNoWins","type":"uint256","internalType":"uint256"}],"stateMutability":"view"},{"type":"function","name":"marketCount","inputs":[],"outputs":[{"name":"","type":"uint256","internalType":"uint256"}],"stateMutability":"view"},{"type":"function","name":"markets","inputs":[{"name":"","type":"uint256","internalType":"uint256"}],"outputs":[{"name":"description","type":"string","internalType":"string"},{"name":"conditionHash","type":"bytes32","internalType":"bytes32"},{"name":"oracleRepo","type":"string","internalType":"string"},{"name":"oracleCommitSHA","type":"string","internalType":"string"},{"name":"deadline","type":"uint256","internalType":"uint256"},{"name":"settled","type":"bool","internalType":"bool"},{"name":"result","type":"bool","internalType":"bool"},{"name":"yesPool","type":"uint256","internalType":"uint256"},{"name":"noPool","type":"uint256","internalType":"uint256"},{"name":"totalYesShares","type":"uint256","internalType":"uint256"},{"name":"totalNoShares","type":"uint256","internalType":"uint256"}],"stateMutability":"view"},{"type":"function","name":"owner","inputs":[],"outputs":[{"name":"","type":"address","internalType":"address"}],"stateMutability":"view"},{"type":"function","name":"settle","inputs":[{"name":"marketId","type":"uint256","internalType":"uint256"},{"name":"topicId","type":"string","internalType":"string"},{"name":"keyword","type":"string","internalType":"string"},{"name":"oracleType","type":"string","internalType":"string"},{"name":"settleable","type":"bool","internalType":"bool"},{"name":"result","type":"bool","internalType":"bool"},{"name":"attestation","type":"bytes","internalType":"bytes"}],"outputs":[],"stateMutability":"nonpayable"},{"type":"event","name":"BetPlaced","inputs":[{"name":"marketId","type":"uint256","indexed":true,"internalType":"uint256"},{"name":"bettor","type":"address","indexed":true,"internalType":"address"},{"name":"position","type":"bool","indexed":false,"internalType":"bool"},{"name":"amount","type":"uint256","indexed":false,"internalType":"uint256"},{"name":"shares","type":"uint256","indexed":false,"internalType":"uint256"}],"anonymous":false},{"type":"event","name":"MarketCreated","inputs":[{"name":"marketId","type":"uint256","indexed":true,"internalType":"uint256"},{"name":"description","type":"string","indexed":false,"internalType":"string"},{"name":"conditionHash","type":"bytes32","indexed":false,"internalType":"bytes32"},{"name":"deadline","type":"uint256","indexed":false,"internalType":"uint256"}],"anonymous":false},{"type":"event","name":"MarketSettled","inputs":[{"name":"marketId","type":"uint256","indexed":true,"internalType":"uint256"},{"name":"settler","type":"address","indexed":true,"internalType":"address"},{"name":"result","type":"bool","indexed":false,"internalType":"bool"},{"name":"topicId","type":"string","indexed":false,"internalType":"string"},{"name":"keyword","type":"string","indexed":false,"internalType":"string"}],"anonymous":false},{"type":"event","name":"WinningsClaimed","inputs":[{"name":"marketId","type":"uint256","indexed":true,"internalType":"uint256"},{"name":"winner","type":"address","indexed":true,"internalType":"address"},{"name":"amount","type":"uint256","indexed":false,"internalType":"uint256"}],"anonymous":false},{"type":"error","name":"AlreadyClaimed","inputs":[]},{"type":"error","name":"BettingClosed","inputs":[]},{"type":"error","name":"BettingStillOpen","inputs":[]},{"type":"error","name":"InvalidDeadline","inputs":[]},{"type":"error","name":"MarketAlreadySettled","inputs":[]},{"type":"error","name":"NoWinners","inputs":[]},{"type":"error","name":"NoWinningBet","inputs":[]},{"type":"error","name":"NotSettleable","inputs":[]},{"type":"error","name":"ParameterMismatch","inputs":[]},{"type":"error","name":"TransferFailed","inputs":[]},{"type":"error","name":"ZeroBet","inputs":[]}],"bytecode":{"object":"0x608060405234801561000f575f80fd5b503360035f6101000a81548173ffffffffffffffffffffffffffffffffffffffff021916908373ffffffffffffffffffffffffffffffffffffffff16021790555061205c8061005d5f395ff3fe6080604052600436106100a6575f3560e01c8063b1283e7711610063578063b1283e77146101ba578063bd9366fd14610200578063e0950ddf1461023c578063eb44fdd31461027a578063ec979082146102be578063f644b3bb146102e8576100a6565b8063126c4166146100aa578063379607f5146100e75780638da5cb5b1461010f5780639754b31c1461013957806397d65f0a146101765780639a6d3aaa1461019e575b5f80fd5b3480156100b5575f80fd5b506100d060048036038101906100cb91906112cc565b610326565b6040516100de929190611306565b60405180910390f35b3480156100f2575f80fd5b5061010d600480360381019061010891906112cc565b6103ae565b005b34801561011a575f80fd5b506101236106a7565b604051610130919061136c565b60405180910390f35b348015610144575f80fd5b5061015f600480360381019061015a91906113af565b6106cc565b60405161016d929190611306565b60405180910390f35b348015610181575f80fd5b5061019c600480360381019061019791906115fc565b6107c9565b005b6101b860048036038101906101b39190611709565b61099a565b005b3480156101c5575f80fd5b506101e060048036038101906101db91906112cc565b610bbf565b6040516101f79b9a999897969594939291906117e8565b60405180910390f35b34801561020b575f80fd5b50610226600480360381019061022191906118a6565b610dbf565b60405161023391906119eb565b60405180910390f35b348015610247575f80fd5b50610262600480360381019061025d91906113af565b610fad565b60405161027193929190611a04565b60405180910390f35b348015610285575f80fd5b506102a0600480360381019061029b91906112cc565b611027565b6040516102b599989796959493929190611a39565b60405180910390f35b3480156102c9575f80fd5b506102d2611245565b6040516102df91906119eb565b60405180910390f35b3480156102f3575f80fd5b5061030e600480360381019061030991906113af565b61124b565b60405161031d93929190611a04565b60405180910390f35b5f805f805f8581526020019081526020015f2090505f816007015482600601546103509190611b06565b90505f810361036857611388809350935050506103a9565b80612710836006015461037b9190611b39565b6103859190611ba7565b935080612710836007015461039a9190611b39565b6103a49190611ba7565b925050505b915091565b5f805f8381526020019081526020015f209050806005015f9054906101000a900460ff16610408576040517f6622393700000000000000000000000000000000000000000000000000000000815260040160405180910390fd5b5f60015f8481526020019081526020015f205f3373ffffffffffffffffffffffffffffffffffffffff1673ffffffffffffffffffffffffffffffffffffffff1681526020019081526020015f209050806002015f9054906101000a900460ff161561049f576040517f646cf55800000000000000000000000000000000000000000000000000000000815260040160405180910390fd5b5f8260050160019054906101000a900460ff166104c05781600101546104c5565b815f01545b90505f8103610500576040517fe9a07bf900000000000000000000000000000000000000000000000000000000815260040160405180910390fd5b6001826002015f6101000a81548160ff0219169083151502179055505f836007015484600601546105319190611b06565b90505f8460050160019054906101000a900460ff1661055457846009015461055a565b84600801545b90505f8103610595576040517f3728feb300000000000000000000000000000000000000000000000000000000815260040160405180910390fd5b5f8183856105a39190611b39565b6105ad9190611ba7565b90503373ffffffffffffffffffffffffffffffffffffffff16877f5380cf6fe903b40c6d5a9e0dfbca2f3a423f0a21520b4d5947ed5169bdba946d836040516105f691906119eb565b60405180910390a35f3373ffffffffffffffffffffffffffffffffffffffff168260405161062390611c04565b5f6040518083038185875af1925050503d805f811461065d576040519150601f19603f3d011682016040523d82523d5f602084013e610662565b606091505b505090508061069d576040517f90b8ec1800000000000000000000000000000000000000000000000000000000815260040160405180910390fd5b5050505050505050565b60035f9054906101000a900473ffffffffffffffffffffffffffffffffffffffff1681565b5f805f805f8681526020019081526020015f2090505f60015f8781526020019081526020015f205f8673ffffffffffffffffffffffffffffffffffffffff1673ffffffffffffffffffffffffffffffffffffffff1681526020019081526020015f2090505f826007015483600601546107459190611b06565b90505f836008015411801561075c57505f825f0154115b1561078257826008015481835f01546107759190611b39565b61077f9190611ba7565b94505b5f836009015411801561079857505f8260010154115b156107bf5782600901548183600101546107b29190611b39565b6107bc9190611ba7565b93505b5050509250929050565b5f805f8981526020019081526020015f209050806004015442101561081a576040517fc0bb38b200000000000000000000000000000000000000000000000000000000815260040160405180910390fd5b806005015f9054906101000a900460ff1615610862576040517f6622393700000000000000000000000000000000000000000000000000000000815260040160405180910390fd5b5f87878760405160200161087893929190611c18565b604051602081830303815290604052805190602001209050816001015481146108cd576040517f9f464d8900000000000000000000000000000000000000000000000000000000815260040160405180910390fd5b84610904576040517fb2f7122300000000000000000000000000000000000000000000000000000000815260040160405180910390fd5b6001826005015f6101000a81548160ff021916908315150217905550838260050160016101000a81548160ff0219169083151502179055503373ffffffffffffffffffffffffffffffffffffffff16897fc93b14bd87b7c66606e4945ffa23bdf75bef99d319db08902543bedc0a00c42c868b8b60405161098793929190611c62565b60405180910390a3505050505050505050565b5f805f8481526020019081526020015f209050806004015442106109ea576040517f61c54c4a00000000000000000000000000000000000000000000000000000000815260040160405180910390fd5b806005015f9054906101000a900460ff1615610a32576040517f6622393700000000000000000000000000000000000000000000000000000000815260040160405180910390fd5b5f3403610a6b576040517f6400ccd000000000000000000000000000000000000000000000000000000000815260040160405180910390fd5b5f60015f8581526020019081526020015f205f3373ffffffffffffffffffffffffffffffffffffffff1673ffffffffffffffffffffffffffffffffffffffff1681526020019081526020015f2090505f3490508315610b165734836006015f828254610ad79190611b06565b9250508190555080836008015f828254610af19190611b06565b9250508190555080825f015f828254610b0a9190611b06565b92505081905550610b65565b34836007015f828254610b299190611b06565b9250508190555080836009015f828254610b439190611b06565b9250508190555080826001015f828254610b5d9190611b06565b925050819055505b3373ffffffffffffffffffffffffffffffffffffffff16857f52772507cb516fc74ec2a0c1cf45c731d4e9eb90979b956f47caf17c42086880863485604051610bb093929190611ca5565b60405180910390a35050505050565b5f602052805f5260405f205f91509050805f018054610bdd90611d07565b80601f0160208091040260200160405190810160405280929190818152602001828054610c0990611d07565b8015610c545780601f10610c2b57610100808354040283529160200191610c54565b820191905f5260205f20905b815481529060010190602001808311610c3757829003601f168201915b505050505090806001015490806002018054610c6f90611d07565b80601f0160208091040260200160405190810160405280929190818152602001828054610c9b90611d07565b8015610ce65780601f10610cbd57610100808354040283529160200191610ce6565b820191905f5260205f20905b815481529060010190602001808311610cc957829003601f168201915b505050505090806003018054610cfb90611d07565b80601f0160208091040260200160405190810160405280929190818152602001828054610d2790611d07565b8015610d725780601f10610d4957610100808354040283529160200191610d72565b820191905f5260205f20905b815481529060010190602001808311610d5557829003601f168201915b505050505090806004015490806005015f9054906101000a900460ff16908060050160019054906101000a900460ff1690806006015490806007015490806008015490806009015490508b565b5f428211610df9576040517f769d11e400000000000000000000000000000000000000000000000000000000815260040160405180910390fd5b5f878787604051602001610e0f93929190611c18565b6040516020818303038152906040528051906020012090505f60025f815480929190610e3a90611d37565b9190505590506040518061016001604052808b81526020018381526020018781526020018681526020018581526020015f151581526020015f151581526020015f81526020015f81526020015f81526020015f8152505f808381526020019081526020015f205f820151815f019081610eb39190611f1b565b50602082015181600101556040820151816002019081610ed39190611f1b565b506060820151816003019081610ee99190611f1b565b506080820151816004015560a0820151816005015f6101000a81548160ff02191690831515021790555060c08201518160050160016101000a81548160ff02191690831515021790555060e08201518160060155610100820151816007015561012082015181600801556101408201518160090155905050807f5418fb71faccfb684a9f1e04632b476389c6da2ade790502d8b141135d4aacce8b8487604051610f9593929190611fea565b60405180910390a28092505050979650505050505050565b5f805f8060015f8781526020019081526020015f205f8673ffffffffffffffffffffffffffffffffffffffff1673ffffffffffffffffffffffffffffffffffffffff1681526020019081526020015f209050805f01548160010154826002015f9054906101000a900460ff16935093509350509250925092565b60605f6060805f805f805f805f808c81526020019081526020015f209050805f01816001015482600201836003018460040154856005015f9054906101000a900460ff168660050160019054906101000a900460ff168760060154886007015488805461109390611d07565b80601f01602080910402602001604051908101604052809291908181526020018280546110bf90611d07565b801561110a5780601f106110e15761010080835404028352916020019161110a565b820191905f5260205f20905b8154815290600101906020018083116110ed57829003601f168201915b5050505050985086805461111d90611d07565b80601f016020809104026020016040519081016040528092919081815260200182805461114990611d07565b80156111945780601f1061116b57610100808354040283529160200191611194565b820191905f5260205f20905b81548152906001019060200180831161117757829003601f168201915b505050505096508580546111a790611d07565b80601f01602080910402602001604051908101604052809291908181526020018280546111d390611d07565b801561121e5780601f106111f55761010080835404028352916020019161121e565b820191905f5260205f20905b81548152906001019060200180831161120157829003601f168201915b50505050509550995099509950995099509950995099509950509193959799909294969850565b60025481565b6001602052815f5260405f20602052805f5260405f205f9150915050805f015490806001015490806002015f9054906101000a900460ff16905083565b5f604051905090565b5f80fd5b5f80fd5b5f819050919050565b6112ab81611299565b81146112b5575f80fd5b50565b5f813590506112c6816112a2565b92915050565b5f602082840312156112e1576112e0611291565b5b5f6112ee848285016112b8565b91505092915050565b61130081611299565b82525050565b5f6040820190506113195f8301856112f7565b61132660208301846112f7565b9392505050565b5f73ffffffffffffffffffffffffffffffffffffffff82169050919050565b5f6113568261132d565b9050919050565b6113668161134c565b82525050565b5f60208201905061137f5f83018461135d565b92915050565b61138e8161134c565b8114611398575f80fd5b50565b5f813590506113a981611385565b92915050565b5f80604083850312156113c5576113c4611291565b5b5f6113d2858286016112b8565b92505060206113e38582860161139b565b9150509250929050565b5f80fd5b5f80fd5b5f601f19601f8301169050919050565b7f4e487b71000000000000000000000000000000000000000000000000000000005f52604160045260245ffd5b61143b826113f5565b810181811067ffffffffffffffff8211171561145a57611459611405565b5b80604052505050565b5f61146c611288565b90506114788282611432565b919050565b5f67ffffffffffffffff82111561149757611496611405565b5b6114a0826113f5565b9050602081019050919050565b828183375f83830152505050565b5f6114cd6114c88461147d565b611463565b9050828152602081018484840111156114e9576114e86113f1565b5b6114f48482856114ad565b509392505050565b5f82601f8301126115105761150f6113ed565b5b81356115208482602086016114bb565b91505092915050565b5f8115159050919050565b61153d81611529565b8114611547575f80fd5b50565b5f8135905061155881611534565b92915050565b5f67ffffffffffffffff82111561157857611577611405565b5b611581826113f5565b9050602081019050919050565b5f6115a061159b8461155e565b611463565b9050828152602081018484840111156115bc576115bb6113f1565b5b6115c78482856114ad565b509392505050565b5f82601f8301126115e3576115e26113ed565b5b81356115f384826020860161158e565b91505092915050565b5f805f805f805f60e0888a03121561161757611616611291565b5b5f6116248a828b016112b8565b975050602088013567ffffffffffffffff81111561164557611644611295565b5b6116518a828b016114fc565b965050604088013567ffffffffffffffff81111561167257611671611295565b5b61167e8a828b016114fc565b955050606088013567ffffffffffffffff81111561169f5761169e611295565b5b6116ab8a828b016114fc565b94505060806116bc8a828b0161154a565b93505060a06116cd8a828b0161154a565b92505060c088013567ffffffffffffffff8111156116ee576116ed611295565b5b6116fa8a828b016115cf565b91505092959891949750929550565b5f806040838503121561171f5761171e611291565b5b5f61172c858286016112b8565b925050602061173d8582860161154a565b9150509250929050565b5f81519050919050565b5f82825260208201905092915050565b5f5b8381101561177e578082015181840152602081019050611763565b5f8484015250505050565b5f61179382611747565b61179d8185611751565b93506117ad818560208601611761565b6117b6816113f5565b840191505092915050565b5f819050919050565b6117d3816117c1565b82525050565b6117e281611529565b82525050565b5f610160820190508181035f830152611801818e611789565b9050611810602083018d6117ca565b8181036040830152611822818c611789565b90508181036060830152611836818b611789565b9050611845608083018a6112f7565b61185260a08301896117d9565b61185f60c08301886117d9565b61186c60e08301876112f7565b61187a6101008301866112f7565b6118886101208301856112f7565b6118966101408301846112f7565b9c9b505050505050505050505050565b5f805f805f805f60e0888a0312156118c1576118c0611291565b5b5f88013567ffffffffffffffff8111156118de576118dd611295565b5b6118ea8a828b016114fc565b975050602088013567ffffffffffffffff81111561190b5761190a611295565b5b6119178a828b016114fc565b965050604088013567ffffffffffffffff81111561193857611937611295565b5b6119448a828b016114fc565b955050606088013567ffffffffffffffff81111561196557611964611295565b5b6119718a828b016114fc565b945050608088013567ffffffffffffffff81111561199257611991611295565b5b61199e8a828b016114fc565b93505060a088013567ffffffffffffffff8111156119bf576119be611295565b5b6119cb8a828b016114fc565b92505060c06119dc8a828b016112b8565b91505092959891949750929550565b5f6020820190506119fe5f8301846112f7565b92915050565b5f606082019050611a175f8301866112f7565b611a2460208301856112f7565b611a3160408301846117d9565b949350505050565b5f610120820190508181035f830152611a52818c611789565b9050611a61602083018b6117ca565b8181036040830152611a73818a611789565b90508181036060830152611a878189611789565b9050611a9660808301886112f7565b611aa360a08301876117d9565b611ab060c08301866117d9565b611abd60e08301856112f7565b611acb6101008301846112f7565b9a9950505050505050505050565b7f4e487b71000000000000000000000000000000000000000000000000000000005f52601160045260245ffd5b5f611b1082611299565b9150611b1b83611299565b9250828201905080821115611b3357611b32611ad9565b5b92915050565b5f611b4382611299565b9150611b4e83611299565b9250828202611b5c81611299565b91508282048414831517611b7357611b72611ad9565b5b5092915050565b7f4e487b71000000000000000000000000000000000000000000000000000000005f52601260045260245ffd5b5f611bb182611299565b9150611bbc83611299565b925082611bcc57611bcb611b7a565b5b828204905092915050565b5f81905092915050565b50565b5f611bef5f83611bd7565b9150611bfa82611be1565b5f82019050919050565b5f611c0e82611be4565b9150819050919050565b5f6060820190508181035f830152611c308186611789565b90508181036020830152611c448185611789565b90508181036040830152611c588184611789565b9050949350505050565b5f606082019050611c755f8301866117d9565b8181036020830152611c878185611789565b90508181036040830152611c9b8184611789565b9050949350505050565b5f606082019050611cb85f8301866117d9565b611cc560208301856112f7565b611cd260408301846112f7565b949350505050565b7f4e487b71000000000000000000000000000000000000000000000000000000005f52602260045260245ffd5b5f6002820490506001821680611d1e57607f821691505b602082108103611d3157611d30611cda565b5b50919050565b5f611d4182611299565b91507fffffffffffffffffffffffffffffffffffffffffffffffffffffffffffffffff8203611d7357611d72611ad9565b5b600182019050919050565b5f819050815f5260205f209050919050565b5f6020601f8301049050919050565b5f82821b905092915050565b5f60088302611dda7fffffffffffffffffffffffffffffffffffffffffffffffffffffffffffffffff82611d9f565b611de48683611d9f565b95508019841693508086168417925050509392505050565b5f819050919050565b5f611e1f611e1a611e1584611299565b611dfc565b611299565b9050919050565b5f819050919050565b611e3883611e05565b611e4c611e4482611e26565b848454611dab565b825550505050565b5f90565b611e60611e54565b611e6b818484611e2f565b505050565b5b81811015611e8e57611e835f82611e58565b600181019050611e71565b5050565b601f821115611ed357611ea481611d7e565b611ead84611d90565b81016020851015611ebc578190505b611ed0611ec885611d90565b830182611e70565b50505b505050565b5f82821c905092915050565b5f611ef35f1984600802611ed8565b1980831691505092915050565b5f611f0b8383611ee4565b9150826002028217905092915050565b611f2482611747565b67ffffffffffffffff811115611f3d57611f3c611405565b5b611f478254611d07565b611f52828285611e92565b5f60209050601f831160018114611f83575f8415611f71578287015190505b611f7b8582611f00565b865550611fe2565b601f198416611f9186611d7e565b5f5b82811015611fb857848901518255600182019150602085019450602081019050611f93565b86831015611fd55784890151611fd1601f891682611ee4565b8355505b6001600288020188555050505b505050505050565b5f6060820190508181035f8301526120028186611789565b905061201160208301856117ca565b61201e60408301846112f7565b94935050505056fea2646970667358221220afe32f1943f3a61fc674a061913d9164410eee273e02095a9e8dac8664b626b564736f6c63430008140033","linkReferences":{}},"methodIdentifiers":{"bet(uint256,bool)":"9a6d3aaa","bets(uint256,address)":"f644b3bb","claim(uint256)":"379607f5","createMarket(string,string,string,string,string,string,uint256)":"bd9366fd","getBet(uint256,address)":"e0950ddf","getMarket(uint256)":"eb44fdd3","getOdds(uint256)":"126c4166","getPotentialPayout(uint256,address)":"9754b31c","marketCount()":"ec979082","markets(uint256)":"b1283e77","owner()":"8da5cb5b","settle(uint256,string,string,string,bool,bool,bytes)":"97d65f0a"},"id":0}