{"abi":[{"type":"constructor","inputs":[{"name":"_verifier","type":"address","internalType":"address"}],"stateMutability":"nonpayable"},{"type":"function","name":"bounties","inputs":[{"name":"","type":"uint256","internalType":"uint256"}],"outputs":[{"name":"creator","type":"address","internalType":"address"},{"name":"amount","type":"uint256","internalType":"uint256"},{"name":"promptHash","type":"bytes32","internalType":"bytes32"},{"name":"promptUri","type":"string","internalType":"string"},{"name":"repoHash","type":"bytes32","internalType":"bytes32"},{"name":"judge","type":"address","internalType":"address"},{"name":"deadline","type":"uint256","internalType":"uint256"},{"name":"claimed","type":"bool","internalType":"bool"}],"stateMutability":"view"},{"type":"function","name":"claimedArtifacts","inputs":[{"name":"","type":"bytes32","internalType":"bytes32"}],"outputs":[{"name":"","type":"bool","internalType":"bool"}],"stateMutability":"view"},{"type":"function","name":"claims","inputs":[{"name":"","type":"uint256","internalType":"uint256"}],"outputs":[{"name":"bountyId","type":"uint256","internalType":"uint256"},{"name":"artifactHash","type":"bytes32","internalType":"bytes32"},{"name":"commitSha","type":"bytes20","internalType":"bytes20"},{"name":"recipient","type":"address","internalType":"address payable"},{"name":"approved","type":"bool","internalType":"bool"},{"name":"judged","type":"bool","internalType":"bool"}],"stateMutability":"view"},{"type":"function","name":"computeRepoHash","inputs":[{"name":"repo","type":"string","internalType":"string"}],"outputs":[{"name":"","type":"bytes32","internalType":"bytes32"}],"stateMutability":"pure"},{"type":"function","name":"createBounty","inputs":[{"name":"promptHash","type":"bytes32","internalType":"bytes32"},{"name":"promptUri","type":"string","internalType":"string"},{"name":"repoHash","type":"bytes32","internalType":"bytes32"},{"name":"judge","type":"address","internalType":"address"},{"name":"deadline","type":"uint256","internalType":"uint256"}],"outputs":[{"name":"bountyId","type":"uint256","internalType":"uint256"}],"stateMutability":"payable"},{"type":"function","name":"judgeClaim","inputs":[{"name":"claimId","type":"uint256","internalType":"uint256"},{"name":"approved","type":"bool","internalType":"bool"}],"outputs":[],"stateMutability":"nonpayable"},{"type":"function","name":"nextBountyId","inputs":[],"outputs":[{"name":"","type":"uint256","internalType":"uint256"}],"stateMutability":"view"},{"type":"function","name":"nextClaimId","inputs":[],"outputs":[{"name":"","type":"uint256","internalType":"uint256"}],"stateMutability":"view"},{"type":"function","name":"refund","inputs":[{"name":"bountyId","type":"uint256","internalType":"uint256"}],"outputs":[],"stateMutability":"nonpayable"},{"type":"function","name":"submitClaim","inputs":[{"name":"bountyId","type":"uint256","internalType":"uint256"},{"name":"proof","type":"bytes","internalType":"bytes"},{"name":"publicInputs","type":"bytes32[]","internalType":"bytes32[]"}],"outputs":[{"name":"claimId","type":"uint256","internalType":"uint256"}],"stateMutability":"nonpayable"},{"type":"function","name":"verifier","inputs":[],"outputs":[{"name":"","type":"address","internalType":"contract ISigstoreVerifier"}],"stateMutability":"view"},{"type":"event","name":"BountyCreated","inputs":[{"name":"bountyId","type":"uint256","indexed":true,"internalType":"uint256"},{"name":"creator","type":"address","indexed":true,"internalType":"address"},{"name":"amount","type":"uint256","indexed":false,"internalType":"uint256"},{"name":"repoHash","type":"bytes32","indexed":false,"internalType":"bytes32"}],"anonymous":false},{"type":"event","name":"BountyRefunded","inputs":[{"name":"bountyId","type":"uint256","indexed":true,"internalType":"uint256"},{"name":"creator","type":"address","indexed":true,"internalType":"address"},{"name":"amount","type":"uint256","indexed":false,"internalType":"uint256"}],"anonymous":false},{"type":"event","name":"ClaimJudged","inputs":[{"name":"claimId","type":"uint256","indexed":true,"internalType":"uint256"},{"name":"bountyId","type":"uint256","indexed":true,"internalType":"uint256"},{"name":"approved","type":"bool","indexed":false,"internalType":"bool"}],"anonymous":false},{"type":"event","name":"ClaimSubmitted","inputs":[{"name":"claimId","type":"uint256","indexed":true,"internalType":"uint256"},{"name":"bountyId","type":"uint256","indexed":true,"internalType":"uint256"},{"name":"artifactHash","type":"bytes32","indexed":false,"internalType":"bytes32"},{"name":"commitSha","type":"bytes20","indexed":false,"internalType":"bytes20"}],"anonymous":false},{"type":"error","name":"AlreadyClaimed","inputs":[]},{"type":"error","name":"AlreadyJudged","inputs":[]},{"type":"error","name":"BountyNotFound","inputs":[]},{"type":"error","name":"DeadlineNotPassed","inputs":[]},{"type":"error","name":"Expired","inputs":[]},{"type":"error","name":"NotCreator","inputs":[]},{"type":"error","name":"NotJudge","inputs":[]},{"type":"error","name":"RepoMismatch","inputs":[]},{"type":"error","name":"TransferFailed","inputs":[]}],"bytecode":{"object":"0x60a0604052348015600e575f5ffd5b5060405161108c38038061108c833981016040819052602b91603b565b6001600160a01b03166080526066565b5f60208284031215604a575f5ffd5b81516001600160a01b0381168114605f575f5ffd5b9392505050565b6080516110086100845f395f818160e001526107f901526110085ff3fe60806040526004361061008b575f3560e01c80631cdd2b9b1461008f578063278ecde1146100b05780632b7ac3f3146100cf57806338cba5031461011f5780633b0f5bce1461014c5780634887a6891461018a5780635ec5e3cb1461019d578063a0021cf1146101bc578063a888c2cd146101d1578063dc2f87441461027c578063fd14fad4146102af575b5f5ffd5b34801561009a575f5ffd5b506100ae6100a9366004610aff565b6102c3565b005b3480156100bb575f5ffd5b506100ae6100ca366004610b31565b610454565b3480156100da575f5ffd5b506101027f000000000000000000000000000000000000000000000000000000000000000081565b6040516001600160a01b0390911681526020015b60405180910390f35b34801561012a575f5ffd5b5061013e610139366004610b8c565b610589565b604051908152602001610116565b348015610157575f5ffd5b5061017a610166366004610b31565b60046020525f908152604090205460ff1681565b6040519015158152602001610116565b61013e610198366004610bca565b6105e1565b3480156101a8575f5ffd5b5061013e6101b7366004610c42565b610764565b3480156101c7575f5ffd5b5061013e60015481565b3480156101dc575f5ffd5b506102356101eb366004610b31565b600360208190525f9182526040909120805460018201546002830154929093015490929160601b906001600160a01b0381169060ff600160a01b8204811691600160a81b90041686565b6040805196875260208701959095526001600160601b0319909316938501939093526001600160a01b031660608401529015156080830152151560a082015260c001610116565b348015610287575f5ffd5b5061029b610296366004610b31565b610a1f565b604051610116989796959493929190610ce6565b3480156102ba575f5ffd5b5061013e5f5481565b5f82815260036020908152604080832080548452600290925290912060058101546001600160a01b0316331461030c5760405163773839b160e11b815260040160405180910390fd5b6003820154600160a81b900460ff161561033957604051632e0bff6760e11b815260040160405180910390fd5b600781015460ff161561035f57604051630c8d9eab60e31b815260040160405180910390fd5b60038201805484158015600160a01b0261ffff60a01b1990921691909117600160a81b179091556104145760078101805460ff191660019081179091556003830154908201546040515f926001600160a01b031691908381818185875af1925050503d805f81146103eb576040519150601f19603f3d011682016040523d82523d5f602084013e6103f0565b606091505b5050905080610412576040516312171d8360e31b815260040160405180910390fd5b505b8154604051841515815285907f320ad3d641f41f9836e6c0e7ed79d3aff0cd709b8a514814747ede3ac921721e906020015b60405180910390a350505050565b5f81815260026020526040902080546001600160a01b0316331461048b576040516393687c0b60e01b815260040160405180910390fd5b600781015460ff16156104b157604051630c8d9eab60e31b815260040160405180910390fd5b806006015442116104d5576040516302eb354360e41b815260040160405180910390fd5b600181810180545f9182905560078401805460ff1916909317909255604051339083908381818185875af1925050503d805f811461052e576040519150601f19603f3d011682016040523d82523d5f602084013e610533565b606091505b5050905080610555576040516312171d8360e31b815260040160405180910390fd5b604051828152339085907ff1ed347f033f54c0d6f1589c933d81b4256cf2f72a785106e3653a565f7433a290602001610446565b5f6002838360405161059c929190610d69565b602060405180830381855afa1580156105b7573d5f5f3e3d5ffd5b5050506040513d601f19601f820116820180604052508101906105da9190610d78565b9392505050565b5f805481806105ef83610d8f565b919050559050604051806101000160405280336001600160a01b0316815260200134815260200188815260200187878080601f0160208091040260200160405190810160405280939291908181526020018383808284375f92018290525093855250505060208083018890526001600160a01b0387811660408086019190915260608086018990526080909501849052868452600280845293819020865181546001600160a01b031916931692909217825591850151600182015590840151918101919091559082015160038201906106c89082610e4b565b506080820151600482015560a08201516005820180546001600160a01b0319166001600160a01b0390921691909117905560c0820151600682015560e0909101516007909101805460ff19169115159190911790556040805134815260208101869052339183917f8d4851cfe69c4793deae15625a7621127ea5fa4b147d3a3980c96db326979fa6910160405180910390a39695505050505050565b5f85815260026020526040812060018101548203610795576040516324ce57e760e21b815260040160405180910390fd5b600781015460ff16156107bb57604051630c8d9eab60e31b815260040160405180910390fd5b80600601544211156107e057604051630407b05b60e31b815260040160405180910390fd5b604051630349ea7360e61b81525f906001600160a01b037f0000000000000000000000000000000000000000000000000000000000000000169063d27a9cc090610834908a908a908a908a90600401610f05565b606060405180830381865afa15801561084f573d5f5f3e3d5ffd5b505050506040513d601f19601f820116820180604052508101906108739190610f67565b9050816004015481602001511461089d5760405163adff296160e01b815260040160405180910390fd5b80515f9081526004602052604090205460ff16156108ce57604051630c8d9eab60e31b815260040160405180910390fd5b80515f908152600460205260408120805460ff191660019081179091558054916108f783610d8f565b909155506040805160c0810182528a81528351602080830191825285840180516001600160601b0319168486019081523360608087019182525f6080880181815260a089018281528b8352600397889052918a9020985189559651600189015592516002880180549190921c6001600160a01b031990911617905551949092018054935192511515600160a81b0260ff60a81b19931515600160a01b026001600160a81b03199095166001600160a01b03969096169590951793909317919091169290921790558351905191519295508a9286927fa61202e84a99aa1489fca46be144f4c3d9fab58bc2a0510cadd6e2ab899ae84192610a0c929091909182526001600160601b031916602082015260400190565b60405180910390a3505095945050505050565b600260208190525f918252604090912080546001820154928201546003830180546001600160a01b0390931694939192610a5890610dc7565b80601f0160208091040260200160405190810160405280929190818152602001828054610a8490610dc7565b8015610acf5780601f10610aa657610100808354040283529160200191610acf565b820191905f5260205f20905b815481529060010190602001808311610ab257829003601f168201915b50505050600483015460058401546006850154600790950154939491936001600160a01b03909116925060ff1688565b5f5f60408385031215610b10575f5ffd5b8235915060208301358015158114610b26575f5ffd5b809150509250929050565b5f60208284031215610b41575f5ffd5b5035919050565b5f5f83601f840112610b58575f5ffd5b5081356001600160401b03811115610b6e575f5ffd5b602083019150836020828501011115610b85575f5ffd5b9250929050565b5f5f60208385031215610b9d575f5ffd5b82356001600160401b03811115610bb2575f5ffd5b610bbe85828601610b48565b90969095509350505050565b5f5f5f5f5f5f60a08789031215610bdf575f5ffd5b8635955060208701356001600160401b03811115610bfb575f5ffd5b610c0789828a01610b48565b9096509450506040870135925060608701356001600160a01b0381168114610c2d575f5ffd5b95989497509295919493608090920135925050565b5f5f5f5f5f60608688031215610c56575f5ffd5b8535945060208601356001600160401b03811115610c72575f5ffd5b610c7e88828901610b48565b90955093505060408601356001600160401b03811115610c9c575f5ffd5b8601601f81018813610cac575f5ffd5b80356001600160401b03811115610cc1575f5ffd5b8860208260051b8401011115610cd5575f5ffd5b959894975092955050506020019190565b60018060a01b038916815287602082015286604082015261010060608201525f865180610100840152806020890161012085015e5f6101208285010152610120601f19601f83011684010191505085608083015260018060a01b03851660a08301528360c0830152610d5c60e083018415159052565b9998505050505050505050565b818382375f9101908152919050565b5f60208284031215610d88575f5ffd5b5051919050565b5f60018201610dac57634e487b7160e01b5f52601160045260245ffd5b5060010190565b634e487b7160e01b5f52604160045260245ffd5b600181811c90821680610ddb57607f821691505b602082108103610df957634e487b7160e01b5f52602260045260245ffd5b50919050565b601f821115610e4657805f5260205f20601f840160051c81016020851015610e245750805b601f840160051c820191505b81811015610e43575f8155600101610e30565b50505b505050565b81516001600160401b03811115610e6457610e64610db3565b610e7881610e728454610dc7565b84610dff565b6020601f821160018114610eaa575f8315610e935750848201515b5f19600385901b1c1916600184901b178455610e43565b5f84815260208120601f198516915b82811015610ed95787850151825560209485019460019092019101610eb9565b5084821015610ef657868401515f19600387901b60f8161c191681555b50505050600190811b01905550565b60408152836040820152838560608301375f60608583018101829052601f19601f8701168301838103820160208501529081018490526001600160fb1b03841115610f4e575f5ffd5b8360051b80866080840137016080019695505050505050565b5f6060828403128015610f78575f5ffd5b50604051606081016001600160401b0381118282101715610f9b57610f9b610db3565b604090815283518252602080850151908301528301516001600160601b031981168114610fc6575f5ffd5b6040820152939250505056fea2646970667358221220b82769f21019c6ac29459306b84d6cbfda9e5b291b2971fbcaea3c5ae33c89c564736f6c634300081e0033","linkReferences":{}},"methodIdentifiers":{"bounties(uint256)":"dc2f8744","claimedArtifacts(bytes32)":"3b0f5bce","claims(uint256)":"a888c2cd","computeRepoHash(string)":"38cba503","createBounty(bytes32,string,bytes32,address,uint256)":"4887a689","judgeClaim(uint256,bool)":"1cdd2b9b","nextBountyId()":"fd14fad4","nextClaimId()":"a0021cf1","refund(uint256)":"278ecde1","submitClaim(uint256,bytes,bytes32[])":"5ec5e3cb","verifier()":"2b7ac3f3"},"id":0}